{
  "_format": "hh-sol-artifact-1",
  "contractName": "AlchemistAcademy",
  "sourceName": "contracts/AlchemistAcademy.sol",
  "abi": [
    {
      "anonymous": false,
      "inputs": [
        {
          "indexed": true,
          "internalType": "address",
          "name": "alchemist",
          "type": "address"
        },
        {
          "indexed": false,
          "internalType": "address",
          "name": "priceOracle",
          "type": "address"
        },
        {
          "indexed": false,
          "internalType": "uint8",
          "name": "fees",
          "type": "uint8"
        },
        {
          "indexed": false,
          "internalType": "address",
          "name": "steadyImplForChyme",
          "type": "address"
        }
      ],
      "name": "AlchemistForged",
      "type": "event"
    },
    {
      "anonymous": false,
      "inputs": [
        {
          "indexed": false,
          "internalType": "address",
          "name": "chyme",
          "type": "address"
        },
        {
          "indexed": false,
          "internalType": "uint256",
          "name": "fees",
          "type": "uint256"
        },
        {
          "indexed": false,
          "internalType": "uint256",
          "name": "approvalStatus",
          "type": "uint256"
        },
        {
          "indexed": false,
          "internalType": "string",
          "name": "symbol",
          "type": "string"
        }
      ],
      "name": "Chymed",
      "type": "event"
    },
    {
      "anonymous": false,
      "inputs": [
        {
          "indexed": false,
          "internalType": "uint8",
          "name": "version",
          "type": "uint8"
        }
      ],
      "name": "Initialized",
      "type": "event"
    },
    {
      "inputs": [],
      "name": "DAOAddress",
      "outputs": [
        {
          "internalType": "address",
          "name": "",
          "type": "address"
        }
      ],
      "stateMutability": "view",
      "type": "function"
    },
    {
      "inputs": [],
      "name": "MINTER_ROLE",
      "outputs": [
        {
          "internalType": "bytes32",
          "name": "",
          "type": "bytes32"
        }
      ],
      "stateMutability": "view",
      "type": "function"
    },
    {
      "inputs": [],
      "name": "alchemistImpl",
      "outputs": [
        {
          "internalType": "address",
          "name": "",
          "type": "address"
        }
      ],
      "stateMutability": "view",
      "type": "function"
    },
    {
      "inputs": [
        {
          "internalType": "address",
          "name": "",
          "type": "address"
        }
      ],
      "name": "chymeList",
      "outputs": [
        {
          "internalType": "uint8",
          "name": "decimals",
          "type": "uint8"
        },
        {
          "internalType": "uint8",
          "name": "fees",
          "type": "uint8"
        },
        {
          "internalType": "uint8",
          "name": "DAOApproved",
          "type": "uint8"
        },
        {
          "internalType": "address",
          "name": "oracleAddress",
          "type": "address"
        },
        {
          "internalType": "address",
          "name": "steadyImplForChyme",
          "type": "address"
        },
        {
          "internalType": "string",
          "name": "symbol",
          "type": "string"
        },
        {
          "internalType": "uint256",
          "name": "timeToMaturity",
          "type": "uint256"
        },
        {
          "internalType": "address",
          "name": "steadyDAOReward",
          "type": "address"
        }
      ],
      "stateMutability": "view",
      "type": "function"
    },
    {
      "inputs": [
        {
          "components": [
            {
              "internalType": "uint8",
              "name": "decimals",
              "type": "uint8"
            },
            {
              "internalType": "uint8",
              "name": "fees",
              "type": "uint8"
            },
            {
              "internalType": "uint8",
              "name": "DAOApproved",
              "type": "uint8"
            },
            {
              "internalType": "address",
              "name": "oracleAddress",
              "type": "address"
            },
            {
              "internalType": "address",
              "name": "steadyImplForChyme",
              "type": "address"
            },
            {
              "internalType": "string",
              "name": "symbol",
              "type": "string"
            },
            {
              "internalType": "uint256",
              "name": "timeToMaturity",
              "type": "uint256"
            },
            {
              "internalType": "address",
              "name": "steadyDAOReward",
              "type": "address"
            }
          ],
          "internalType": "struct IChyme.Chyme",
          "name": "_iChyme",
          "type": "tuple"
        },
        {
          "internalType": "address",
          "name": "_chyme",
          "type": "address"
        }
      ],
      "name": "createNewChyme",
      "outputs": [],
      "stateMutability": "nonpayable",
      "type": "function"
    },
    {
      "inputs": [
        {
          "internalType": "address",
          "name": "_chyme",
          "type": "address"
        }
      ],
      "name": "getChymeInfo",
      "outputs": [
        {
          "internalType": "address",
          "name": "oracleAddress",
          "type": "address"
        },
        {
          "internalType": "uint8",
          "name": "fees",
          "type": "uint8"
        },
        {
          "internalType": "uint8",
          "name": "decimals",
          "type": "uint8"
        },
        {
          "internalType": "uint256",
          "name": "timeToMaturity",
          "type": "uint256"
        },
        {
          "internalType": "string",
          "name": "symbol",
          "type": "string"
        },
        {
          "internalType": "address",
          "name": "steadyImplForChyme",
          "type": "address"
        },
        {
          "internalType": "address",
          "name": "steadyDAOReward",
          "type": "address"
        }
      ],
      "stateMutability": "view",
      "type": "function"
    },
    {
      "inputs": [
        {
          "internalType": "address",
          "name": "_steadyImpl",
          "type": "address"
        },
        {
          "internalType": "address",
          "name": "_treasury",
          "type": "address"
        },
        {
          "internalType": "address",
          "name": "_alchemistImpl",
          "type": "address"
        },
        {
          "internalType": "address",
          "name": "_DAOAddress",
          "type": "address"
        }
      ],
      "name": "initialize",
      "outputs": [],
      "stateMutability": "nonpayable",
      "type": "function"
    },
    {
      "inputs": [
        {
          "internalType": "address",
          "name": "_priceOracle",
          "type": "address"
        }
      ],
      "name": "priceFromOracle",
      "outputs": [
        {
          "internalType": "int256",
          "name": "price",
          "type": "int256"
        }
      ],
      "stateMutability": "view",
      "type": "function"
    },
    {
      "inputs": [
        {
          "internalType": "address",
          "name": "_chyme",
          "type": "address"
        },
        {
          "components": [
            {
              "internalType": "uint8",
              "name": "decimals",
              "type": "uint8"
            },
            {
              "internalType": "uint8",
              "name": "fees",
              "type": "uint8"
            },
            {
              "internalType": "uint8",
              "name": "DAOApproved",
              "type": "uint8"
            },
            {
              "internalType": "address",
              "name": "oracleAddress",
              "type": "address"
            },
            {
              "internalType": "address",
              "name": "steadyImplForChyme",
              "type": "address"
            },
            {
              "internalType": "string",
              "name": "symbol",
              "type": "string"
            },
            {
              "internalType": "uint256",
              "name": "timeToMaturity",
              "type": "uint256"
            },
            {
              "internalType": "address",
              "name": "steadyDAOReward",
              "type": "address"
            }
          ],
          "internalType": "struct IChyme.Chyme",
          "name": "_iChyme",
          "type": "tuple"
        }
      ],
      "name": "setChymeInfo",
      "outputs": [
        {
          "internalType": "bool",
          "name": "success",
          "type": "bool"
        }
      ],
      "stateMutability": "nonpayable",
      "type": "function"
    },
    {
      "inputs": [],
      "name": "steadyImpl",
      "outputs": [
        {
          "internalType": "address",
          "name": "",
          "type": "address"
        }
      ],
      "stateMutability": "view",
      "type": "function"
    },
    {
      "inputs": [],
      "name": "treasury",
      "outputs": [
        {
          "internalType": "address",
          "name": "",
          "type": "address"
        }
      ],
      "stateMutability": "view",
      "type": "function"
    }
  ],
  "bytecode": "0x60806040526040518060400160405280600781526020017f5374656164795f00000000000000000000000000000000000000000000000000815250600690816200004a919062000320565b506040518060400160405280600181526020017f73000000000000000000000000000000000000000000000000000000000000008152506007908162000091919062000320565b503480156200009f57600080fd5b5062000407565b600081519050919050565b7f4e487b7100000000000000000000000000000000000000000000000000000000600052604160045260246000fd5b7f4e487b7100000000000000000000000000000000000000000000000000000000600052602260045260246000fd5b600060028204905060018216806200012857607f821691505b6020821081036200013e576200013d620000e0565b5b50919050565b60008190508160005260206000209050919050565b60006020601f8301049050919050565b600082821b905092915050565b600060088302620001a87fffffffffffffffffffffffffffffffffffffffffffffffffffffffffffffffff8262000169565b620001b4868362000169565b95508019841693508086168417925050509392505050565b6000819050919050565b6000819050919050565b600062000201620001fb620001f584620001cc565b620001d6565b620001cc565b9050919050565b6000819050919050565b6200021d83620001e0565b620002356200022c8262000208565b84845462000176565b825550505050565b600090565b6200024c6200023d565b6200025981848462000212565b505050565b5b8181101562000281576200027560008262000242565b6001810190506200025f565b5050565b601f821115620002d0576200029a8162000144565b620002a58462000159565b81016020851015620002b5578190505b620002cd620002c48562000159565b8301826200025e565b50505b505050565b600082821c905092915050565b6000620002f560001984600802620002d5565b1980831691505092915050565b6000620003108383620002e2565b9150826002028217905092915050565b6200032b82620000a6565b67ffffffffffffffff811115620003475762000346620000b1565b5b6200035382546200010f565b6200036082828562000285565b600060209050601f83116001811462000398576000841562000383578287015190505b6200038f858262000302565b865550620003ff565b601f198416620003a88662000144565b60005b82811015620003d257848901518255600182019150602085019450602081019050620003ab565b86831015620003f25784890151620003ee601f891682620002e2565b8355505b6001600288020188555050505b505050505050565b612c2480620004176000396000f3fe608060405234801561001057600080fd5b50600436106100a95760003560e01c806361d027b31161007157806361d027b31461017f57806380f1ea8a1461019d578063826d8873146101bb578063d392eab1146101f1578063d53913931461020f578063f8c8765e1461022d576100a9565b80633eed8ddf146100ae5780634297711c146100de57806345771a8a146100fc57806348aad3ed146101185780634b5fc8db1461014f575b600080fd5b6100c860048036038101906100c391906116fc565b610249565b6040516100d59190611773565b60405180910390f35b6100e66102ac565b6040516100f3919061179d565b60405180910390f35b61011660048036038101906101119190611a5d565b6102d2565b005b610132600480360381019061012d9190611ab9565b6105d2565b604051610146989796959493929190611b83565b60405180910390f35b61016960048036038101906101649190611ab9565b610729565b6040516101769190611c21565b60405180910390f35b610187610896565b604051610194919061179d565b60405180910390f35b6101a56108bc565b6040516101b2919061179d565b60405180910390f35b6101d560048036038101906101d09190611ab9565b6108e2565b6040516101e89796959493929190611c3c565b60405180910390f35b6101f9610be0565b604051610206919061179d565b60405180910390f35b610217610c06565b6040516102249190611ccb565b60405180910390f35b61024760048036038101906102429190611ce6565b610c2a565b005b6000610253610dbe565b81600160008573ffffffffffffffffffffffffffffffffffffffff1673ffffffffffffffffffffffffffffffffffffffff168152602001908152602001600020818161029f91906124a3565b9050506001905092915050565b600360009054906101000a900473ffffffffffffffffffffffffffffffffffffffff1681565b6102da610dbe565b60008173ffffffffffffffffffffffffffffffffffffffff166395d89b416040518163ffffffff1660e01b8152600401600060405180830381865afa158015610327573d6000803e3d6000fd5b505050506040513d6000823e3d601f19601f820116820180604052508101906103509190612521565b905060006103a260068360405160200161036b929190612629565b60405160208183030381529060405260078460405160200161038e929190612629565b604051602081830303815290604052610e50565b905080846080019073ffffffffffffffffffffffffffffffffffffffff16908173ffffffffffffffffffffffffffffffffffffffff1681525050600084905080600160008673ffffffffffffffffffffffffffffffffffffffff1673ffffffffffffffffffffffffffffffffffffffff16815260200190815260200160002060008201518160000160006101000a81548160ff021916908360ff16021790555060208201518160000160016101000a81548160ff021916908360ff16021790555060408201518160000160026101000a81548160ff021916908360ff16021790555060608201518160000160036101000a81548173ffffffffffffffffffffffffffffffffffffffff021916908373ffffffffffffffffffffffffffffffffffffffff16021790555060808201518160010160006101000a81548173ffffffffffffffffffffffffffffffffffffffff021916908373ffffffffffffffffffffffffffffffffffffffff16021790555060a0820151816002019081610527919061264d565b5060c0820151816003015560e08201518160040160006101000a81548173ffffffffffffffffffffffffffffffffffffffff021916908373ffffffffffffffffffffffffffffffffffffffff1602179055509050507f09a4404e5f7613592498157d0944edb5dc90abc37a14ad03fd9c9eb389e250ff8486602001518760400151866040516105b99493929190612750565b60405180910390a16105ca84610fc2565b505050505050565b60016020528060005260406000206000915090508060000160009054906101000a900460ff16908060000160019054906101000a900460ff16908060000160029054906101000a900460ff16908060000160039054906101000a900473ffffffffffffffffffffffffffffffffffffffff16908060010160009054906101000a900473ffffffffffffffffffffffffffffffffffffffff169080600201805461067a90612069565b80601f01602080910402602001604051908101604052809291908181526020018280546106a690612069565b80156106f35780601f106106c8576101008083540402835291602001916106f3565b820191906000526020600020905b8154815290600101906020018083116106d657829003601f168201915b5050505050908060030154908060040160009054906101000a900473ffffffffffffffffffffffffffffffffffffffff16905088565b6000806040516024016040516020818303038152906040527f50d25bcd000000000000000000000000000000000000000000000000000000007bffffffffffffffffffffffffffffffffffffffffffffffffffffffff19166020820180517bffffffffffffffffffffffffffffffffffffffffffffffffffffffff8381831617835250505050905060008373ffffffffffffffffffffffffffffffffffffffff16826040516107d891906127e3565b600060405180830381855afa9150503d8060008114610813576040519150601f19603f3d011682016040523d82523d6000602084013e610818565b606091505b50915050808060200190518101906108309190612826565b92506001831215801561085057506c0c9f2c9cd04674edea400000008313155b61088f576040517f08c379a00000000000000000000000000000000000000000000000000000000081526004016108869061289f565b60405180910390fd5b5050919050565b600260009054906101000a900473ffffffffffffffffffffffffffffffffffffffff1681565b600560009054906101000a900473ffffffffffffffffffffffffffffffffffffffff1681565b6000806000806060600080600160008973ffffffffffffffffffffffffffffffffffffffff1673ffffffffffffffffffffffffffffffffffffffff16815260200190815260200160002060000160039054906101000a900473ffffffffffffffffffffffffffffffffffffffff16600160008a73ffffffffffffffffffffffffffffffffffffffff1673ffffffffffffffffffffffffffffffffffffffff16815260200190815260200160002060000160019054906101000a900460ff16600160008b73ffffffffffffffffffffffffffffffffffffffff1673ffffffffffffffffffffffffffffffffffffffff16815260200190815260200160002060000160009054906101000a900460ff16600160008c73ffffffffffffffffffffffffffffffffffffffff1673ffffffffffffffffffffffffffffffffffffffff16815260200190815260200160002060030154600160008d73ffffffffffffffffffffffffffffffffffffffff1673ffffffffffffffffffffffffffffffffffffffff168152602001908152602001600020600201600160008e73ffffffffffffffffffffffffffffffffffffffff1673ffffffffffffffffffffffffffffffffffffffff16815260200190815260200160002060010160009054906101000a900473ffffffffffffffffffffffffffffffffffffffff16600160008f73ffffffffffffffffffffffffffffffffffffffff1673ffffffffffffffffffffffffffffffffffffffff16815260200190815260200160002060040160009054906101000a900473ffffffffffffffffffffffffffffffffffffffff16828054610b4790612069565b80601f0160208091040260200160405190810160405280929190818152602001828054610b7390612069565b8015610bc05780601f10610b9557610100808354040283529160200191610bc0565b820191906000526020600020905b815481529060010190602001808311610ba357829003601f168201915b505050505092509650965096509650965096509650919395979092949650565b600460009054906101000a900473ffffffffffffffffffffffffffffffffffffffff1681565b7f9f2df0fed2c77648de5860a4cc508cd0818c85b8b8a1ab4ceeef8d981c8956a681565b6000610c36600161147e565b90508015610c5a576001600060016101000a81548160ff0219169083151502179055505b84600360006101000a81548173ffffffffffffffffffffffffffffffffffffffff021916908373ffffffffffffffffffffffffffffffffffffffff16021790555083600260006101000a81548173ffffffffffffffffffffffffffffffffffffffff021916908373ffffffffffffffffffffffffffffffffffffffff16021790555082600560006101000a81548173ffffffffffffffffffffffffffffffffffffffff021916908373ffffffffffffffffffffffffffffffffffffffff16021790555081600460006101000a81548173ffffffffffffffffffffffffffffffffffffffff021916908373ffffffffffffffffffffffffffffffffffffffff1602179055508015610db75760008060016101000a81548160ff0219169083151502179055507f7f26b83ff96e1f2b6a682f133852f6798a09c465da95921460cefb38474024986001604051610dae91906128fa565b60405180910390a15b5050505050565b600460009054906101000a900473ffffffffffffffffffffffffffffffffffffffff1673ffffffffffffffffffffffffffffffffffffffff163373ffffffffffffffffffffffffffffffffffffffff1614610e4e576040517f08c379a0000000000000000000000000000000000000000000000000000000008152600401610e4590612961565b60405180910390fd5b565b6000610e7d600360009054906101000a900473ffffffffffffffffffffffffffffffffffffffff1661156e565b905060008173ffffffffffffffffffffffffffffffffffffffff168484604051602401610eab929190612981565b6040516020818303038152906040527f4cd88b76000000000000000000000000000000000000000000000000000000007bffffffffffffffffffffffffffffffffffffffffffffffffffffffff19166020820180517bffffffffffffffffffffffffffffffffffffffffffffffffffffffff8381831617835250505050604051610f3591906127e3565b6000604051808303816000865af19150503d8060008114610f72576040519150601f19603f3d011682016040523d82523d6000602084013e610f77565b606091505b5050905080610fbb576040517f08c379a0000000000000000000000000000000000000000000000000000000008152600401610fb290612a04565b60405180910390fd5b5092915050565b600080600160008473ffffffffffffffffffffffffffffffffffffffff1673ffffffffffffffffffffffffffffffffffffffff168152602001908152602001600020604051806101000160405290816000820160009054906101000a900460ff1660ff1660ff1681526020016000820160019054906101000a900460ff1660ff1660ff1681526020016000820160029054906101000a900460ff1660ff1660ff1681526020016000820160039054906101000a900473ffffffffffffffffffffffffffffffffffffffff1673ffffffffffffffffffffffffffffffffffffffff1673ffffffffffffffffffffffffffffffffffffffff1681526020016001820160009054906101000a900473ffffffffffffffffffffffffffffffffffffffff1673ffffffffffffffffffffffffffffffffffffffff1673ffffffffffffffffffffffffffffffffffffffff16815260200160028201805461112390612069565b80601f016020809104026020016040519081016040528092919081815260200182805461114f90612069565b801561119c5780601f106111715761010080835404028352916020019161119c565b820191906000526020600020905b81548152906001019060200180831161117f57829003601f168201915b50505050508152602001600382015481526020016004820160009054906101000a900473ffffffffffffffffffffffffffffffffffffffff1673ffffffffffffffffffffffffffffffffffffffff1673ffffffffffffffffffffffffffffffffffffffff168152505090506001816040015160ff1614611251576040517f08c379a000000000000000000000000000000000000000000000000000000000815260040161124890612a70565b60405180910390fd5b600061127e600560009054906101000a900473ffffffffffffffffffffffffffffffffffffffff1661156e565b90508073ffffffffffffffffffffffffffffffffffffffff1663c4d66de8856040518263ffffffff1660e01b81526004016112b9919061179d565b600060405180830381600087803b1580156112d357600080fd5b505af11580156112e7573d6000803e3d6000fd5b505050506000826080015173ffffffffffffffffffffffffffffffffffffffff167f9f2df0fed2c77648de5860a4cc508cd0818c85b8b8a1ab4ceeef8d981c8956a68360405160240161133b929190612a90565b6040516020818303038152906040527f2f2ff15d000000000000000000000000000000000000000000000000000000007bffffffffffffffffffffffffffffffffffffffffffffffffffffffff19166020820180517bffffffffffffffffffffffffffffffffffffffffffffffffffffffff83818316178352505050506040516113c591906127e3565b6000604051808303816000865af19150503d8060008114611402576040519150601f19603f3d011682016040523d82523d6000602084013e611407565b606091505b505090508061141557600080fd5b8173ffffffffffffffffffffffffffffffffffffffff167f2f64fc6aaf24f37b1e8dac91926ccb8eef693d85f4fdf1d41b9eb1b69793d96c84606001518560200151866080015160405161146b93929190612ab9565b60405180910390a2819350505050919050565b60008060019054906101000a900460ff16156114f55760018260ff161480156114ad57506114ab30611642565b155b6114ec576040517f08c379a00000000000000000000000000000000000000000000000000000000081526004016114e390612b62565b60405180910390fd5b60009050611569565b8160ff1660008054906101000a900460ff1660ff161061154a576040517f08c379a000000000000000000000000000000000000000000000000000000000815260040161154190612b62565b60405180910390fd5b816000806101000a81548160ff021916908360ff160217905550600190505b919050565b60006040517f3d602d80600a3d3981f3363d3d373d3d3d363d7300000000000000000000000081528260601b60148201527f5af43d82803e903d91602b57fd5bf3000000000000000000000000000000000060288201526037816000f0915050600073ffffffffffffffffffffffffffffffffffffffff168173ffffffffffffffffffffffffffffffffffffffff160361163d576040517f08c379a000000000000000000000000000000000000000000000000000000000815260040161163490612bce565b60405180910390fd5b919050565b6000808273ffffffffffffffffffffffffffffffffffffffff163b119050919050565b6000604051905090565b600080fd5b600080fd5b600073ffffffffffffffffffffffffffffffffffffffff82169050919050565b60006116a482611679565b9050919050565b6116b481611699565b81146116bf57600080fd5b50565b6000813590506116d1816116ab565b92915050565b600080fd5b600061010082840312156116f3576116f26116d7565b5b81905092915050565b600080604083850312156117135761171261166f565b5b6000611721858286016116c2565b925050602083013567ffffffffffffffff81111561174257611741611674565b5b61174e858286016116dc565b9150509250929050565b60008115159050919050565b61176d81611758565b82525050565b60006020820190506117886000830184611764565b92915050565b61179781611699565b82525050565b60006020820190506117b2600083018461178e565b92915050565b600080fd5b6000601f19601f8301169050919050565b7f4e487b7100000000000000000000000000000000000000000000000000000000600052604160045260246000fd5b611806826117bd565b810181811067ffffffffffffffff82111715611825576118246117ce565b5b80604052505050565b6000611838611665565b905061184482826117fd565b919050565b600080fd5b600060ff82169050919050565b6118648161184e565b811461186f57600080fd5b50565b6000813590506118818161185b565b92915050565b600080fd5b600080fd5b600067ffffffffffffffff8211156118ac576118ab6117ce565b5b6118b5826117bd565b9050602081019050919050565b82818337600083830152505050565b60006118e46118df84611891565b61182e565b905082815260208101848484011115611900576118ff61188c565b5b61190b8482856118c2565b509392505050565b600082601f83011261192857611927611887565b5b81356119388482602086016118d1565b91505092915050565b6000819050919050565b61195481611941565b811461195f57600080fd5b50565b6000813590506119718161194b565b92915050565b6000610100828403121561198e5761198d6117b8565b5b61199961010061182e565b905060006119a984828501611872565b60008301525060206119bd84828501611872565b60208301525060406119d184828501611872565b60408301525060606119e5848285016116c2565b60608301525060806119f9848285016116c2565b60808301525060a082013567ffffffffffffffff811115611a1d57611a1c611849565b5b611a2984828501611913565b60a08301525060c0611a3d84828501611962565b60c08301525060e0611a51848285016116c2565b60e08301525092915050565b60008060408385031215611a7457611a7361166f565b5b600083013567ffffffffffffffff811115611a9257611a91611674565b5b611a9e85828601611977565b9250506020611aaf858286016116c2565b9150509250929050565b600060208284031215611acf57611ace61166f565b5b6000611add848285016116c2565b91505092915050565b611aef8161184e565b82525050565b600081519050919050565b600082825260208201905092915050565b60005b83811015611b2f578082015181840152602081019050611b14565b60008484015250505050565b6000611b4682611af5565b611b508185611b00565b9350611b60818560208601611b11565b611b69816117bd565b840191505092915050565b611b7d81611941565b82525050565b600061010082019050611b99600083018b611ae6565b611ba6602083018a611ae6565b611bb36040830189611ae6565b611bc0606083018861178e565b611bcd608083018761178e565b81810360a0830152611bdf8186611b3b565b9050611bee60c0830185611b74565b611bfb60e083018461178e565b9998505050505050505050565b6000819050919050565b611c1b81611c08565b82525050565b6000602082019050611c366000830184611c12565b92915050565b600060e082019050611c51600083018a61178e565b611c5e6020830189611ae6565b611c6b6040830188611ae6565b611c786060830187611b74565b8181036080830152611c8a8186611b3b565b9050611c9960a083018561178e565b611ca660c083018461178e565b98975050505050505050565b6000819050919050565b611cc581611cb2565b82525050565b6000602082019050611ce06000830184611cbc565b92915050565b60008060008060808587031215611d0057611cff61166f565b5b6000611d0e878288016116c2565b9450506020611d1f878288016116c2565b9350506040611d30878288016116c2565b9250506060611d41878288016116c2565b91505092959194509250565b60008135611d5a8161185b565b80915050919050565b60008160001b9050919050565b600060ff611d7d84611d63565b9350801983169250808416831791505092915050565b6000819050919050565b6000611db8611db3611dae8461184e565b611d93565b61184e565b9050919050565b6000819050919050565b611dd282611d9d565b611de5611dde82611dbf565b8354611d70565b8255505050565b60008160081b9050919050565b600061ff00611e0784611dec565b9350801983169250808416831791505092915050565b611e2682611d9d565b611e39611e3282611dbf565b8354611df9565b8255505050565b60008160101b9050919050565b600062ff0000611e5c84611e40565b9350801983169250808416831791505092915050565b611e7b82611d9d565b611e8e611e8782611dbf565b8354611e4d565b8255505050565b60008135611ea2816116ab565b80915050919050565b60008160181b9050919050565b600076ffffffffffffffffffffffffffffffffffffffff000000611edb84611eab565b9350801983169250808416831791505092915050565b6000611f0c611f07611f0284611679565b611d93565b611679565b9050919050565b6000611f1e82611ef1565b9050919050565b6000611f3082611f13565b9050919050565b6000819050919050565b611f4a82611f25565b611f5d611f5682611f37565b8354611eb8565b8255505050565b600073ffffffffffffffffffffffffffffffffffffffff611f8484611d63565b9350801983169250808416831791505092915050565b611fa382611f25565b611fb6611faf82611f37565b8354611f64565b8255505050565b600080fd5b600080fd5b600080fd5b60008083356001602003843603038112611fe957611fe8611fbd565b5b80840192508235915067ffffffffffffffff82111561200b5761200a611fc2565b5b60208301925060018202360383131561202757612026611fc7565b5b509250929050565b600082905092915050565b7f4e487b7100000000000000000000000000000000000000000000000000000000600052602260045260246000fd5b6000600282049050600182168061208157607f821691505b6020821081036120945761209361203a565b5b50919050565b60008190508160005260206000209050919050565b60006020601f8301049050919050565b600082821b905092915050565b6000600883026120fc7fffffffffffffffffffffffffffffffffffffffffffffffffffffffffffffffff826120bf565b61210686836120bf565b95508019841693508086168417925050509392505050565b600061213961213461212f84611941565b611d93565b611941565b9050919050565b6000819050919050565b6121538361211e565b61216761215f82612140565b8484546120cc565b825550505050565b600090565b61217c61216f565b61218781848461214a565b505050565b5b818110156121ab576121a0600082612174565b60018101905061218d565b5050565b601f8211156121f0576121c18161209a565b6121ca846120af565b810160208510156121d9578190505b6121ed6121e5856120af565b83018261218c565b50505b505050565b600082821c905092915050565b6000612213600019846008026121f5565b1980831691505092915050565b600061222c8383612202565b9150826002028217905092915050565b612246838361202f565b67ffffffffffffffff81111561225f5761225e6117ce565b5b6122698254612069565b6122748282856121af565b6000601f8311600181146122a35760008415612291578287013590505b61229b8582612220565b865550612303565b601f1984166122b18661209a565b60005b828110156122d9578489013582556001820191506020850194506020810190506122b4565b868310156122f657848901356122f2601f891682612202565b8355505b6001600288020188555050505b50505050505050565b61231783838361223c565b505050565b600081356123298161194b565b80915050919050565b60007fffffffffffffffffffffffffffffffffffffffffffffffffffffffffffffffff61235e84611d63565b9350801983169250808416831791505092915050565b61237d8261211e565b61239061238982612140565b8354612332565b8255505050565b6000810160008301806123a981611d4d565b90506123b58184611dc9565b5050506000810160208301806123ca81611d4d565b90506123d68184611e1d565b5050506000810160408301806123eb81611d4d565b90506123f78184611e72565b50505060008101606083018061240c81611e95565b90506124188184611f41565b50505060018101608083018061242d81611e95565b90506124398184611f9a565b5050506002810160a0830161244e8185611fcc565b61245981838661230c565b505050506003810160c083018061246f8161231c565b905061247b8184612374565b5050506004810160e083018061249081611e95565b905061249c8184611f9a565b5050505050565b6124ad8282612397565b5050565b60006124c46124bf84611891565b61182e565b9050828152602081018484840111156124e0576124df61188c565b5b6124eb848285611b11565b509392505050565b600082601f83011261250857612507611887565b5b81516125188482602086016124b1565b91505092915050565b6000602082840312156125375761253661166f565b5b600082015167ffffffffffffffff81111561255557612554611674565b5b612561848285016124f3565b91505092915050565b600081905092915050565b6000815461258281612069565b61258c818661256a565b945060018216600081146125a757600181146125bc576125ef565b60ff19831686528115158202860193506125ef565b6125c58561209a565b60005b838110156125e7578154818901526001820191506020810190506125c8565b838801955050505b50505092915050565b600061260382611af5565b61260d818561256a565b935061261d818560208601611b11565b80840191505092915050565b60006126358285612575565b915061264182846125f8565b91508190509392505050565b61265682611af5565b67ffffffffffffffff81111561266f5761266e6117ce565b5b6126798254612069565b6126848282856121af565b600060209050601f8311600181146126b757600084156126a5578287015190505b6126af8582612220565b865550612717565b601f1984166126c58661209a565b60005b828110156126ed578489015182556001820191506020850194506020810190506126c8565b8683101561270a5784890151612706601f891682612202565b8355505b6001600288020188555050505b505050505050565b600061273a6127356127308461184e565b611d93565b611941565b9050919050565b61274a8161271f565b82525050565b6000608082019050612765600083018761178e565b6127726020830186612741565b61277f6040830185612741565b81810360608301526127918184611b3b565b905095945050505050565b600081519050919050565b600081905092915050565b60006127bd8261279c565b6127c781856127a7565b93506127d7818560208601611b11565b80840191505092915050565b60006127ef82846127b2565b915081905092915050565b61280381611c08565b811461280e57600080fd5b50565b600081519050612820816127fa565b92915050565b60006020828403121561283c5761283b61166f565b5b600061284a84828501612811565b91505092915050565b7f4f7261636c65207072696365206973206f7574206f662072616e676500000000600082015250565b6000612889601c83611b00565b915061289482612853565b602082019050919050565b600060208201905081810360008301526128b88161287c565b9050919050565b6000819050919050565b60006128e46128df6128da846128bf565b611d93565b61184e565b9050919050565b6128f4816128c9565b82525050565b600060208201905061290f60008301846128eb565b92915050565b7f526571756972657320476f7665726e616e636521000000000000000000000000600082015250565b600061294b601483611b00565b915061295682612915565b602082019050919050565b6000602082019050818103600083015261297a8161293e565b9050919050565b6000604082019050818103600083015261299b8185611b3b565b905081810360208301526129af8184611b3b565b90509392505050565b7f4661696c656420746f20696e6974000000000000000000000000000000000000600082015250565b60006129ee600e83611b00565b91506129f9826129b8565b602082019050919050565b60006020820190508181036000830152612a1d816129e1565b9050919050565b7f5965204368796d6520697320496d707572652100000000000000000000000000600082015250565b6000612a5a601383611b00565b9150612a6582612a24565b602082019050919050565b60006020820190508181036000830152612a8981612a4d565b9050919050565b6000604082019050612aa56000830185611cbc565b612ab2602083018461178e565b9392505050565b6000606082019050612ace600083018661178e565b612adb6020830185611ae6565b612ae8604083018461178e565b949350505050565b7f496e697469616c697a61626c653a20636f6e747261637420697320616c72656160008201527f647920696e697469616c697a6564000000000000000000000000000000000000602082015250565b6000612b4c602e83611b00565b9150612b5782612af0565b604082019050919050565b60006020820190508181036000830152612b7b81612b3f565b9050919050565b7f455243313136373a20637265617465206661696c656400000000000000000000600082015250565b6000612bb8601683611b00565b9150612bc382612b82565b602082019050919050565b60006020820190508181036000830152612be781612bab565b905091905056fea26469706673582212200147760d739527e2d367b06edd5121760db0ab3a1c93084d0f886a9fb39cdb6e64736f6c63430008100033",
  "linkReferences": {},
  "deployedLinkReferences": {}
}