{
  "_format": "hh-sol-artifact-1",
  "contractName": "AlchemistAcademy",
  "sourceName": "contracts/AlchemistAcademy.sol",
  "abi": [
    {
      "anonymous": false,
      "inputs": [
        {
          "indexed": true,
          "internalType": "address",
          "name": "alchemist",
          "type": "address"
        },
        {
          "indexed": false,
          "internalType": "address",
          "name": "priceOracle",
          "type": "address"
        },
        {
          "indexed": false,
          "internalType": "uint8",
          "name": "fees",
          "type": "uint8"
        },
        {
          "indexed": false,
          "internalType": "address",
          "name": "steadyImplForChyme",
          "type": "address"
        }
      ],
      "name": "AlchemistForged",
      "type": "event"
    },
    {
      "anonymous": false,
      "inputs": [
        {
          "indexed": false,
          "internalType": "address",
          "name": "chyme",
          "type": "address"
        },
        {
          "indexed": false,
          "internalType": "uint256",
          "name": "fees",
          "type": "uint256"
        },
        {
          "indexed": false,
          "internalType": "uint256",
          "name": "approvalStatus",
          "type": "uint256"
        },
        {
          "indexed": false,
          "internalType": "string",
          "name": "symbol",
          "type": "string"
        }
      ],
      "name": "Chymed",
      "type": "event"
    },
    {
      "anonymous": false,
      "inputs": [
        {
          "indexed": false,
          "internalType": "uint8",
          "name": "version",
          "type": "uint8"
        }
      ],
      "name": "Initialized",
      "type": "event"
    },
    {
      "inputs": [],
      "name": "DAOAddress",
      "outputs": [
        {
          "internalType": "address",
          "name": "",
          "type": "address"
        }
      ],
      "stateMutability": "view",
      "type": "function"
    },
    {
      "inputs": [],
      "name": "MINTER_ROLE",
      "outputs": [
        {
          "internalType": "bytes32",
          "name": "",
          "type": "bytes32"
        }
      ],
      "stateMutability": "view",
      "type": "function"
    },
    {
      "inputs": [],
      "name": "alchemistCounter",
      "outputs": [
        {
          "internalType": "uint256",
          "name": "",
          "type": "uint256"
        }
      ],
      "stateMutability": "view",
      "type": "function"
    },
    {
      "inputs": [],
      "name": "alchemistImpl",
      "outputs": [
        {
          "internalType": "address",
          "name": "",
          "type": "address"
        }
      ],
      "stateMutability": "view",
      "type": "function"
    },
    {
      "inputs": [
        {
          "internalType": "address",
          "name": "",
          "type": "address"
        }
      ],
      "name": "chymeList",
      "outputs": [
        {
          "internalType": "uint8",
          "name": "decimals",
          "type": "uint8"
        },
        {
          "internalType": "uint8",
          "name": "fees",
          "type": "uint8"
        },
        {
          "internalType": "uint8",
          "name": "DAOApproved",
          "type": "uint8"
        },
        {
          "internalType": "address",
          "name": "oracleAddress",
          "type": "address"
        },
        {
          "internalType": "address",
          "name": "steadyImplForChyme",
          "type": "address"
        },
        {
          "internalType": "string",
          "name": "symbol",
          "type": "string"
        },
        {
          "internalType": "uint256",
          "name": "timeToMaturity",
          "type": "uint256"
        }
      ],
      "stateMutability": "view",
      "type": "function"
    },
    {
      "inputs": [
        {
          "internalType": "uint8",
          "name": "_decimals",
          "type": "uint8"
        },
        {
          "internalType": "uint8",
          "name": "_fees",
          "type": "uint8"
        },
        {
          "internalType": "uint8",
          "name": "_approvalStatus",
          "type": "uint8"
        },
        {
          "internalType": "address",
          "name": "_chyme",
          "type": "address"
        },
        {
          "internalType": "address",
          "name": "_oracleAddress",
          "type": "address"
        },
        {
          "internalType": "uint256",
          "name": "_timeToMaturity",
          "type": "uint256"
        }
      ],
      "name": "createNewChyme",
      "outputs": [],
      "stateMutability": "nonpayable",
      "type": "function"
    },
    {
      "inputs": [],
      "name": "elixirImpl",
      "outputs": [
        {
          "internalType": "address",
          "name": "",
          "type": "address"
        }
      ],
      "stateMutability": "view",
      "type": "function"
    },
    {
      "inputs": [
        {
          "internalType": "address",
          "name": "_chyme",
          "type": "address"
        }
      ],
      "name": "getChymeInfo",
      "outputs": [
        {
          "internalType": "address",
          "name": "oracleAddress",
          "type": "address"
        },
        {
          "internalType": "uint8",
          "name": "fees",
          "type": "uint8"
        },
        {
          "internalType": "uint8",
          "name": "decimals",
          "type": "uint8"
        },
        {
          "internalType": "uint256",
          "name": "timeToMaturity",
          "type": "uint256"
        },
        {
          "internalType": "string",
          "name": "symbol",
          "type": "string"
        },
        {
          "internalType": "address",
          "name": "steadyImplForChyme",
          "type": "address"
        }
      ],
      "stateMutability": "view",
      "type": "function"
    },
    {
      "inputs": [
        {
          "internalType": "address",
          "name": "_elixirImpl",
          "type": "address"
        },
        {
          "internalType": "address",
          "name": "_steadyImpl",
          "type": "address"
        },
        {
          "internalType": "address",
          "name": "_treasury",
          "type": "address"
        },
        {
          "internalType": "address",
          "name": "_alchemistImpl",
          "type": "address"
        },
        {
          "internalType": "address",
          "name": "_DAOAddress",
          "type": "address"
        },
        {
          "internalType": "address",
          "name": "_steadyDAOReward",
          "type": "address"
        }
      ],
      "name": "initialize",
      "outputs": [],
      "stateMutability": "nonpayable",
      "type": "function"
    },
    {
      "inputs": [
        {
          "internalType": "address",
          "name": "_priceOracle",
          "type": "address"
        }
      ],
      "name": "priceFromOracle",
      "outputs": [
        {
          "internalType": "int256",
          "name": "price",
          "type": "int256"
        }
      ],
      "stateMutability": "view",
      "type": "function"
    },
    {
      "inputs": [
        {
          "internalType": "address",
          "name": "_steadyDAOReward",
          "type": "address"
        }
      ],
      "name": "setDAORewardContract",
      "outputs": [],
      "stateMutability": "nonpayable",
      "type": "function"
    },
    {
      "inputs": [],
      "name": "steadyDAOReward",
      "outputs": [
        {
          "internalType": "address",
          "name": "",
          "type": "address"
        }
      ],
      "stateMutability": "view",
      "type": "function"
    },
    {
      "inputs": [],
      "name": "steadyDAOToken",
      "outputs": [
        {
          "internalType": "address",
          "name": "",
          "type": "address"
        }
      ],
      "stateMutability": "view",
      "type": "function"
    },
    {
      "inputs": [],
      "name": "steadyImpl",
      "outputs": [
        {
          "internalType": "address",
          "name": "",
          "type": "address"
        }
      ],
      "stateMutability": "view",
      "type": "function"
    },
    {
      "inputs": [],
      "name": "treasury",
      "outputs": [
        {
          "internalType": "address",
          "name": "",
          "type": "address"
        }
      ],
      "stateMutability": "view",
      "type": "function"
    }
  ],
  "bytecode": "0x60806040526040518060400160405280600781526020017f5374656164795f000000000000000000000000000000000000000000000000008152506009908051906020019062000051929190620000b4565b506040518060400160405280600181526020017f7300000000000000000000000000000000000000000000000000000000000000815250600a90805190602001906200009f929190620000b4565b50348015620000ad57600080fd5b50620001c8565b828054620000c29062000193565b90600052602060002090601f016020900481019282620000e6576000855562000132565b82601f106200010157805160ff191683800117855562000132565b8280016001018555821562000132579182015b828111156200013157825182559160200191906001019062000114565b5b50905062000141919062000145565b5090565b5b808211156200016057600081600090555060010162000146565b5090565b7f4e487b7100000000000000000000000000000000000000000000000000000000600052602260045260246000fd5b60006002820490506001821680620001ac57607f821691505b602082108103620001c257620001c162000164565b5b50919050565b6125da80620001d86000396000f3fe608060405234801561001057600080fd5b50600436106100f55760003560e01c8063826d887311610097578063d539139311610066578063d539139314610281578063e2effcb81461029f578063ece07489146102bb578063f7e1b04d146102d9576100f5565b8063826d8873146101f6578063a1f113991461022b578063cc2a9a5b14610247578063d392eab114610263576100f5565b80634b5fc8db116100d35780634b5fc8db1461016c57806361d027b31461019c57806364b6a148146101ba57806380f1ea8a146101d8576100f5565b80631eb4a6df146100fa5780634297711c1461011857806348aad3ed14610136575b600080fd5b6101026102f7565b60405161010f9190611915565b60405180910390f35b61012061031d565b60405161012d9190611915565b60405180910390f35b610150600480360381019061014b9190611970565b610343565b6040516101639796959493929190611a6b565b60405180910390f35b61018660048036038101906101819190611970565b610474565b6040516101939190611afa565b60405180910390f35b6101a46105e1565b6040516101b19190611915565b60405180910390f35b6101c2610607565b6040516101cf9190611915565b60405180910390f35b6101e061062d565b6040516101ed9190611915565b60405180910390f35b610210600480360381019061020b9190611970565b610653565b60405161022296959493929190611b15565b60405180910390f35b61024560048036038101906102409190611bd5565b6108e9565b005b610261600480360381019061025c9190611c62565b610bd4565b005b61026b610dec565b6040516102789190611915565b60405180910390f35b610289610e12565b6040516102969190611d08565b60405180910390f35b6102b960048036038101906102b49190611970565b610e36565b005b6102c3610e82565b6040516102d09190611915565b60405180910390f35b6102e1610ea8565b6040516102ee9190611d23565b60405180910390f35b600560009054906101000a900473ffffffffffffffffffffffffffffffffffffffff1681565b600360009054906101000a900473ffffffffffffffffffffffffffffffffffffffff1681565b60016020528060005260406000206000915090508060000160009054906101000a900460ff16908060000160019054906101000a900460ff16908060000160029054906101000a900460ff16908060000160039054906101000a900473ffffffffffffffffffffffffffffffffffffffff16908060010160009054906101000a900473ffffffffffffffffffffffffffffffffffffffff16908060020180546103eb90611d6d565b80601f016020809104026020016040519081016040528092919081815260200182805461041790611d6d565b80156104645780601f1061043957610100808354040283529160200191610464565b820191906000526020600020905b81548152906001019060200180831161044757829003601f168201915b5050505050908060030154905087565b6000806040516024016040516020818303038152906040527f50d25bcd000000000000000000000000000000000000000000000000000000007bffffffffffffffffffffffffffffffffffffffffffffffffffffffff19166020820180517bffffffffffffffffffffffffffffffffffffffffffffffffffffffff8381831617835250505050905060008373ffffffffffffffffffffffffffffffffffffffff16826040516105239190611de5565b600060405180830381855afa9150503d806000811461055e576040519150601f19603f3d011682016040523d82523d6000602084013e610563565b606091505b509150508080602001905181019061057b9190611e28565b92506001831215801561059b57506c0c9f2c9cd04674edea400000008313155b6105da576040517f08c379a00000000000000000000000000000000000000000000000000000000081526004016105d190611ea1565b60405180910390fd5b5050919050565b600660009054906101000a900473ffffffffffffffffffffffffffffffffffffffff1681565b600260009054906101000a900473ffffffffffffffffffffffffffffffffffffffff1681565b600460009054906101000a900473ffffffffffffffffffffffffffffffffffffffff1681565b60008060008060606000600160008873ffffffffffffffffffffffffffffffffffffffff1673ffffffffffffffffffffffffffffffffffffffff16815260200190815260200160002060000160039054906101000a900473ffffffffffffffffffffffffffffffffffffffff16600160008973ffffffffffffffffffffffffffffffffffffffff1673ffffffffffffffffffffffffffffffffffffffff16815260200190815260200160002060000160019054906101000a900460ff16600160008a73ffffffffffffffffffffffffffffffffffffffff1673ffffffffffffffffffffffffffffffffffffffff16815260200190815260200160002060000160009054906101000a900460ff16600160008b73ffffffffffffffffffffffffffffffffffffffff1673ffffffffffffffffffffffffffffffffffffffff16815260200190815260200160002060030154600160008c73ffffffffffffffffffffffffffffffffffffffff1673ffffffffffffffffffffffffffffffffffffffff168152602001908152602001600020600201600160008d73ffffffffffffffffffffffffffffffffffffffff1673ffffffffffffffffffffffffffffffffffffffff16815260200190815260200160002060010160009054906101000a900473ffffffffffffffffffffffffffffffffffffffff1681805461085490611d6d565b80601f016020809104026020016040519081016040528092919081815260200182805461088090611d6d565b80156108cd5780601f106108a2576101008083540402835291602001916108cd565b820191906000526020600020905b8154815290600101906020018083116108b057829003601f168201915b5050505050915095509550955095509550955091939550919395565b6108f1610eae565b60008373ffffffffffffffffffffffffffffffffffffffff166395d89b416040518163ffffffff1660e01b8152600401600060405180830381865afa15801561093e573d6000803e3d6000fd5b505050506040513d6000823e3d601f19601f820116820180604052508101906109679190611fe7565b905060006109b9600983604051602001610982929190612100565b604051602081830303815290604052600a846040516020016109a5929190612100565b604051602081830303815290604052610f40565b905060006040518060e001604052808a60ff1681526020018960ff1681526020018860ff1681526020018673ffffffffffffffffffffffffffffffffffffffff1681526020018373ffffffffffffffffffffffffffffffffffffffff16815260200184815260200185815250905080600160008873ffffffffffffffffffffffffffffffffffffffff1673ffffffffffffffffffffffffffffffffffffffff16815260200190815260200160002060008201518160000160006101000a81548160ff021916908360ff16021790555060208201518160000160016101000a81548160ff021916908360ff16021790555060408201518160000160026101000a81548160ff021916908360ff16021790555060608201518160000160036101000a81548173ffffffffffffffffffffffffffffffffffffffff021916908373ffffffffffffffffffffffffffffffffffffffff16021790555060808201518160010160006101000a81548173ffffffffffffffffffffffffffffffffffffffff021916908373ffffffffffffffffffffffffffffffffffffffff16021790555060a0820151816002019080519060200190610b74929190611831565b5060c082015181600301559050507f09a4404e5f7613592498157d0944edb5dc90abc37a14ad03fd9c9eb389e250ff86898986604051610bb7949392919061215f565b60405180910390a1610bc8866110b2565b50505050505050505050565b6000610be0600161164a565b90508015610c04576001600060016101000a81548160ff0219169083151502179055505b86600260006101000a81548173ffffffffffffffffffffffffffffffffffffffff021916908373ffffffffffffffffffffffffffffffffffffffff16021790555085600360006101000a81548173ffffffffffffffffffffffffffffffffffffffff021916908373ffffffffffffffffffffffffffffffffffffffff16021790555084600660006101000a81548173ffffffffffffffffffffffffffffffffffffffff021916908373ffffffffffffffffffffffffffffffffffffffff16021790555083600460006101000a81548173ffffffffffffffffffffffffffffffffffffffff021916908373ffffffffffffffffffffffffffffffffffffffff16021790555082600760006101000a81548173ffffffffffffffffffffffffffffffffffffffff021916908373ffffffffffffffffffffffffffffffffffffffff16021790555081600860006101000a81548173ffffffffffffffffffffffffffffffffffffffff021916908373ffffffffffffffffffffffffffffffffffffffff1602179055508015610de35760008060016101000a81548160ff0219169083151502179055507f7f26b83ff96e1f2b6a682f133852f6798a09c465da95921460cefb38474024986001604051610dda91906121e6565b60405180910390a15b50505050505050565b600760009054906101000a900473ffffffffffffffffffffffffffffffffffffffff1681565b7f9f2df0fed2c77648de5860a4cc508cd0818c85b8b8a1ab4ceeef8d981c8956a681565b610e3e610eae565b80600860006101000a81548173ffffffffffffffffffffffffffffffffffffffff021916908373ffffffffffffffffffffffffffffffffffffffff16021790555050565b600860009054906101000a900473ffffffffffffffffffffffffffffffffffffffff1681565b600b5481565b600760009054906101000a900473ffffffffffffffffffffffffffffffffffffffff1673ffffffffffffffffffffffffffffffffffffffff163373ffffffffffffffffffffffffffffffffffffffff1614610f3e576040517f08c379a0000000000000000000000000000000000000000000000000000000008152600401610f359061224d565b60405180910390fd5b565b6000610f6d600360009054906101000a900473ffffffffffffffffffffffffffffffffffffffff1661173a565b905060008173ffffffffffffffffffffffffffffffffffffffff168484604051602401610f9b92919061226d565b6040516020818303038152906040527f4cd88b76000000000000000000000000000000000000000000000000000000007bffffffffffffffffffffffffffffffffffffffffffffffffffffffff19166020820180517bffffffffffffffffffffffffffffffffffffffffffffffffffffffff83818316178352505050506040516110259190611de5565b6000604051808303816000865af19150503d8060008114611062576040519150601f19603f3d011682016040523d82523d6000602084013e611067565b606091505b50509050806110ab576040517f08c379a00000000000000000000000000000000000000000000000000000000081526004016110a2906122f0565b60405180910390fd5b5092915050565b600080600160008473ffffffffffffffffffffffffffffffffffffffff1673ffffffffffffffffffffffffffffffffffffffff1681526020019081526020016000206040518060e00160405290816000820160009054906101000a900460ff1660ff1660ff1681526020016000820160019054906101000a900460ff1660ff1660ff1681526020016000820160029054906101000a900460ff1660ff1660ff1681526020016000820160039054906101000a900473ffffffffffffffffffffffffffffffffffffffff1673ffffffffffffffffffffffffffffffffffffffff1673ffffffffffffffffffffffffffffffffffffffff1681526020016001820160009054906101000a900473ffffffffffffffffffffffffffffffffffffffff1673ffffffffffffffffffffffffffffffffffffffff1673ffffffffffffffffffffffffffffffffffffffff16815260200160028201805461121290611d6d565b80601f016020809104026020016040519081016040528092919081815260200182805461123e90611d6d565b801561128b5780601f106112605761010080835404028352916020019161128b565b820191906000526020600020905b81548152906001019060200180831161126e57829003601f168201915b5050505050815260200160038201548152505090506001816040015160ff16146112ea576040517f08c379a00000000000000000000000000000000000000000000000000000000081526004016112e19061235c565b60405180910390fd5b6000611317600460009054906101000a900473ffffffffffffffffffffffffffffffffffffffff1661173a565b90508073ffffffffffffffffffffffffffffffffffffffff1663530b97a485600260009054906101000a900473ffffffffffffffffffffffffffffffffffffffff16600660009054906101000a900473ffffffffffffffffffffffffffffffffffffffff16600b600081548092919061138f906123ab565b91905055600860009054906101000a900473ffffffffffffffffffffffffffffffffffffffff166040518663ffffffff1660e01b81526004016113d69594939291906123f3565b600060405180830381600087803b1580156113f057600080fd5b505af1158015611404573d6000803e3d6000fd5b505050506000826080015173ffffffffffffffffffffffffffffffffffffffff167f9f2df0fed2c77648de5860a4cc508cd0818c85b8b8a1ab4ceeef8d981c8956a683604051602401611458929190612446565b6040516020818303038152906040527f2f2ff15d000000000000000000000000000000000000000000000000000000007bffffffffffffffffffffffffffffffffffffffffffffffffffffffff19166020820180517bffffffffffffffffffffffffffffffffffffffffffffffffffffffff83818316178352505050506040516114e29190611de5565b6000604051808303816000865af19150503d806000811461151f576040519150601f19603f3d011682016040523d82523d6000602084013e611524565b606091505b505090508061153257600080fd5b600260009054906101000a900473ffffffffffffffffffffffffffffffffffffffff1673ffffffffffffffffffffffffffffffffffffffff16632f2ff15d7f9f2df0fed2c77648de5860a4cc508cd0818c85b8b8a1ab4ceeef8d981c8956a6846040518363ffffffff1660e01b81526004016115af929190612446565b600060405180830381600087803b1580156115c957600080fd5b505af11580156115dd573d6000803e3d6000fd5b505050508173ffffffffffffffffffffffffffffffffffffffff167f2f64fc6aaf24f37b1e8dac91926ccb8eef693d85f4fdf1d41b9eb1b69793d96c8460600151856020015186608001516040516116379392919061246f565b60405180910390a2819350505050919050565b60008060019054906101000a900460ff16156116c15760018260ff1614801561167957506116773061180e565b155b6116b8576040517f08c379a00000000000000000000000000000000000000000000000000000000081526004016116af90612518565b60405180910390fd5b60009050611735565b8160ff1660008054906101000a900460ff1660ff1610611716576040517f08c379a000000000000000000000000000000000000000000000000000000000815260040161170d90612518565b60405180910390fd5b816000806101000a81548160ff021916908360ff160217905550600190505b919050565b60006040517f3d602d80600a3d3981f3363d3d373d3d3d363d7300000000000000000000000081528260601b60148201527f5af43d82803e903d91602b57fd5bf3000000000000000000000000000000000060288201526037816000f0915050600073ffffffffffffffffffffffffffffffffffffffff168173ffffffffffffffffffffffffffffffffffffffff1603611809576040517f08c379a000000000000000000000000000000000000000000000000000000000815260040161180090612584565b60405180910390fd5b919050565b6000808273ffffffffffffffffffffffffffffffffffffffff163b119050919050565b82805461183d90611d6d565b90600052602060002090601f01602090048101928261185f57600085556118a6565b82601f1061187857805160ff19168380011785556118a6565b828001600101855582156118a6579182015b828111156118a557825182559160200191906001019061188a565b5b5090506118b391906118b7565b5090565b5b808211156118d05760008160009055506001016118b8565b5090565b600073ffffffffffffffffffffffffffffffffffffffff82169050919050565b60006118ff826118d4565b9050919050565b61190f816118f4565b82525050565b600060208201905061192a6000830184611906565b92915050565b6000604051905090565b600080fd5b600080fd5b61194d816118f4565b811461195857600080fd5b50565b60008135905061196a81611944565b92915050565b6000602082840312156119865761198561193a565b5b60006119948482850161195b565b91505092915050565b600060ff82169050919050565b6119b38161199d565b82525050565b600081519050919050565b600082825260208201905092915050565b60005b838110156119f35780820151818401526020810190506119d8565b83811115611a02576000848401525b50505050565b6000601f19601f8301169050919050565b6000611a24826119b9565b611a2e81856119c4565b9350611a3e8185602086016119d5565b611a4781611a08565b840191505092915050565b6000819050919050565b611a6581611a52565b82525050565b600060e082019050611a80600083018a6119aa565b611a8d60208301896119aa565b611a9a60408301886119aa565b611aa76060830187611906565b611ab46080830186611906565b81810360a0830152611ac68185611a19565b9050611ad560c0830184611a5c565b98975050505050505050565b6000819050919050565b611af481611ae1565b82525050565b6000602082019050611b0f6000830184611aeb565b92915050565b600060c082019050611b2a6000830189611906565b611b3760208301886119aa565b611b4460408301876119aa565b611b516060830186611a5c565b8181036080830152611b638185611a19565b9050611b7260a0830184611906565b979650505050505050565b611b868161199d565b8114611b9157600080fd5b50565b600081359050611ba381611b7d565b92915050565b611bb281611a52565b8114611bbd57600080fd5b50565b600081359050611bcf81611ba9565b92915050565b60008060008060008060c08789031215611bf257611bf161193a565b5b6000611c0089828a01611b94565b9650506020611c1189828a01611b94565b9550506040611c2289828a01611b94565b9450506060611c3389828a0161195b565b9350506080611c4489828a0161195b565b92505060a0611c5589828a01611bc0565b9150509295509295509295565b60008060008060008060c08789031215611c7f57611c7e61193a565b5b6000611c8d89828a0161195b565b9650506020611c9e89828a0161195b565b9550506040611caf89828a0161195b565b9450506060611cc089828a0161195b565b9350506080611cd189828a0161195b565b92505060a0611ce289828a0161195b565b9150509295509295509295565b6000819050919050565b611d0281611cef565b82525050565b6000602082019050611d1d6000830184611cf9565b92915050565b6000602082019050611d386000830184611a5c565b92915050565b7f4e487b7100000000000000000000000000000000000000000000000000000000600052602260045260246000fd5b60006002820490506001821680611d8557607f821691505b602082108103611d9857611d97611d3e565b5b50919050565b600081519050919050565b600081905092915050565b6000611dbf82611d9e565b611dc98185611da9565b9350611dd98185602086016119d5565b80840191505092915050565b6000611df18284611db4565b915081905092915050565b611e0581611ae1565b8114611e1057600080fd5b50565b600081519050611e2281611dfc565b92915050565b600060208284031215611e3e57611e3d61193a565b5b6000611e4c84828501611e13565b91505092915050565b7f4f7261636c65207072696365206973206f7574206f662072616e676500000000600082015250565b6000611e8b601c836119c4565b9150611e9682611e55565b602082019050919050565b60006020820190508181036000830152611eba81611e7e565b9050919050565b600080fd5b600080fd5b7f4e487b7100000000000000000000000000000000000000000000000000000000600052604160045260246000fd5b611f0382611a08565b810181811067ffffffffffffffff82111715611f2257611f21611ecb565b5b80604052505050565b6000611f35611930565b9050611f418282611efa565b919050565b600067ffffffffffffffff821115611f6157611f60611ecb565b5b611f6a82611a08565b9050602081019050919050565b6000611f8a611f8584611f46565b611f2b565b905082815260208101848484011115611fa657611fa5611ec6565b5b611fb18482856119d5565b509392505050565b600082601f830112611fce57611fcd611ec1565b5b8151611fde848260208601611f77565b91505092915050565b600060208284031215611ffd57611ffc61193a565b5b600082015167ffffffffffffffff81111561201b5761201a61193f565b5b61202784828501611fb9565b91505092915050565b600081905092915050565b60008190508160005260206000209050919050565b6000815461205d81611d6d565b6120678186612030565b945060018216600081146120825760018114612093576120c6565b60ff198316865281860193506120c6565b61209c8561203b565b60005b838110156120be5781548189015260018201915060208101905061209f565b838801955050505b50505092915050565b60006120da826119b9565b6120e48185612030565b93506120f48185602086016119d5565b80840191505092915050565b600061210c8285612050565b915061211882846120cf565b91508190509392505050565b6000819050919050565b600061214961214461213f8461199d565b612124565b611a52565b9050919050565b6121598161212e565b82525050565b60006080820190506121746000830187611906565b6121816020830186612150565b61218e6040830185612150565b81810360608301526121a08184611a19565b905095945050505050565b6000819050919050565b60006121d06121cb6121c6846121ab565b612124565b61199d565b9050919050565b6121e0816121b5565b82525050565b60006020820190506121fb60008301846121d7565b92915050565b7f526571756972657320476f7665726e616e636521000000000000000000000000600082015250565b60006122376014836119c4565b915061224282612201565b602082019050919050565b600060208201905081810360008301526122668161222a565b9050919050565b600060408201905081810360008301526122878185611a19565b9050818103602083015261229b8184611a19565b90509392505050565b7f4661696c656420746f20696e6974000000000000000000000000000000000000600082015250565b60006122da600e836119c4565b91506122e5826122a4565b602082019050919050565b60006020820190508181036000830152612309816122cd565b9050919050565b7f5965204368796d6520697320496d707572652100000000000000000000000000600082015250565b60006123466013836119c4565b915061235182612310565b602082019050919050565b6000602082019050818103600083015261237581612339565b9050919050565b7f4e487b7100000000000000000000000000000000000000000000000000000000600052601160045260246000fd5b60006123b682611a52565b91507fffffffffffffffffffffffffffffffffffffffffffffffffffffffffffffffff82036123e8576123e761237c565b5b600182019050919050565b600060a0820190506124086000830188611906565b6124156020830187611906565b6124226040830186611906565b61242f6060830185611a5c565b61243c6080830184611906565b9695505050505050565b600060408201905061245b6000830185611cf9565b6124686020830184611906565b9392505050565b60006060820190506124846000830186611906565b61249160208301856119aa565b61249e6040830184611906565b949350505050565b7f496e697469616c697a61626c653a20636f6e747261637420697320616c72656160008201527f647920696e697469616c697a6564000000000000000000000000000000000000602082015250565b6000612502602e836119c4565b915061250d826124a6565b604082019050919050565b60006020820190508181036000830152612531816124f5565b9050919050565b7f455243313136373a20637265617465206661696c656400000000000000000000600082015250565b600061256e6016836119c4565b915061257982612538565b602082019050919050565b6000602082019050818103600083015261259d81612561565b905091905056fea2646970667358221220cceacc3070a206866ec147e50436037759c34a933d58254fffa580acf080ab1564736f6c634300080d0033",
  "linkReferences": {},
  "deployedLinkReferences": {}
}