{
  "_format": "hh-sol-artifact-1",
  "contractName": "Alchemist",
  "sourceName": "contracts/Alchemist.sol",
  "abi": [
    {
      "anonymous": false,
      "inputs": [
        {
          "indexed": false,
          "internalType": "uint8",
          "name": "version",
          "type": "uint8"
        }
      ],
      "name": "Initialized",
      "type": "event"
    },
    {
      "anonymous": false,
      "inputs": [
        {
          "indexed": true,
          "internalType": "address",
          "name": "source",
          "type": "address"
        },
        {
          "indexed": false,
          "internalType": "uint256",
          "name": "mergedAmount",
          "type": "uint256"
        },
        {
          "indexed": false,
          "internalType": "address",
          "name": "chyme",
          "type": "address"
        },
        {
          "indexed": false,
          "internalType": "uint256",
          "name": "tokenid",
          "type": "uint256"
        }
      ],
      "name": "Merge",
      "type": "event"
    },
    {
      "anonymous": false,
      "inputs": [
        {
          "indexed": true,
          "internalType": "address",
          "name": "source",
          "type": "address"
        },
        {
          "indexed": false,
          "internalType": "uint256",
          "name": "splitAmount",
          "type": "uint256"
        },
        {
          "indexed": false,
          "internalType": "address",
          "name": "chymeVaultDeployed",
          "type": "address"
        },
        {
          "indexed": false,
          "internalType": "address",
          "name": "chyme",
          "type": "address"
        },
        {
          "indexed": false,
          "internalType": "uint256",
          "name": "tokenId",
          "type": "uint256"
        }
      ],
      "name": "Split",
      "type": "event"
    },
    {
      "inputs": [],
      "name": "academy",
      "outputs": [
        {
          "internalType": "address",
          "name": "",
          "type": "address"
        }
      ],
      "stateMutability": "view",
      "type": "function"
    },
    {
      "inputs": [],
      "name": "alchemistId",
      "outputs": [
        {
          "internalType": "uint256",
          "name": "",
          "type": "uint256"
        }
      ],
      "stateMutability": "view",
      "type": "function"
    },
    {
      "inputs": [],
      "name": "chyme",
      "outputs": [
        {
          "internalType": "address",
          "name": "",
          "type": "address"
        }
      ],
      "stateMutability": "view",
      "type": "function"
    },
    {
      "inputs": [],
      "name": "chymeVaultImpl",
      "outputs": [
        {
          "internalType": "address",
          "name": "",
          "type": "address"
        }
      ],
      "stateMutability": "view",
      "type": "function"
    },
    {
      "inputs": [],
      "name": "elixirImpl",
      "outputs": [
        {
          "internalType": "address",
          "name": "",
          "type": "address"
        }
      ],
      "stateMutability": "view",
      "type": "function"
    },
    {
      "inputs": [],
      "name": "getChyme",
      "outputs": [
        {
          "internalType": "address",
          "name": "",
          "type": "address"
        }
      ],
      "stateMutability": "view",
      "type": "function"
    },
    {
      "inputs": [
        {
          "internalType": "address",
          "name": "_chyme",
          "type": "address"
        },
        {
          "internalType": "address",
          "name": "_elixirImpl",
          "type": "address"
        },
        {
          "internalType": "address",
          "name": "_treasury",
          "type": "address"
        },
        {
          "internalType": "uint256",
          "name": "_alchemistId",
          "type": "uint256"
        },
        {
          "internalType": "address",
          "name": "_steadyDAORewards",
          "type": "address"
        }
      ],
      "name": "initialize",
      "outputs": [],
      "stateMutability": "nonpayable",
      "type": "function"
    },
    {
      "inputs": [
        {
          "internalType": "uint256",
          "name": "tokenId",
          "type": "uint256"
        }
      ],
      "name": "merge",
      "outputs": [
        {
          "internalType": "bool",
          "name": "",
          "type": "bool"
        }
      ],
      "stateMutability": "nonpayable",
      "type": "function"
    },
    {
      "inputs": [
        {
          "internalType": "uint256",
          "name": "amount",
          "type": "uint256"
        },
        {
          "internalType": "enum Alchemist.Ratios",
          "name": "ratioOfSteady",
          "type": "uint8"
        }
      ],
      "name": "split",
      "outputs": [
        {
          "internalType": "bool",
          "name": "",
          "type": "bool"
        }
      ],
      "stateMutability": "nonpayable",
      "type": "function"
    },
    {
      "inputs": [],
      "name": "steadyDAORewards",
      "outputs": [
        {
          "internalType": "address",
          "name": "",
          "type": "address"
        }
      ],
      "stateMutability": "view",
      "type": "function"
    },
    {
      "inputs": [],
      "name": "steadyDAOToken",
      "outputs": [
        {
          "internalType": "address",
          "name": "",
          "type": "address"
        }
      ],
      "stateMutability": "view",
      "type": "function"
    },
    {
      "inputs": [],
      "name": "treasury",
      "outputs": [
        {
          "internalType": "address",
          "name": "",
          "type": "address"
        }
      ],
      "stateMutability": "view",
      "type": "function"
    }
  ],
  "bytecode": "0x608060405234801561001057600080fd5b506001600081905550613e2f806100286000396000f3fe60806040523480156200001157600080fd5b5060043610620000c45760003560e01c806361d027b3116200007b57806361d027b314620001bb57806364b6a14814620001dd5780638261bb3c14620001ff5780639e146d931462000221578063a51d25331462000243578063fb6e8962146200026557620000c4565b80631eb4a6df14620000c957806324a47aeb14620000eb578063378460f214620001215780634cd6d7ab14620001435780634f5fc3c11462000179578063530b97a4146200019b575b600080fd5b620000d362000287565b604051620000e2919062001a6e565b60405180910390f35b62000109600480360381019062000103919062001ada565b620002ad565b60405162000118919062001b29565b60405180910390f35b6200012b62000c19565b6040516200013a919062001a6e565b60405180910390f35b6200016160048036038101906200015b919062001b6e565b62000c3f565b60405162000170919062001b29565b60405180910390f35b6200018362001117565b60405162000192919062001a6e565b60405180910390f35b620001b96004803603810190620001b3919062001be6565b6200113d565b005b620001c5620011e2565b604051620001d4919062001a6e565b60405180910390f35b620001e762001208565b604051620001f6919062001a6e565b60405180910390f35b620002096200122e565b60405162000218919062001a6e565b60405180910390f35b6200022b62001254565b6040516200023a919062001c7f565b60405180910390f35b6200024d6200125a565b6040516200025c919062001a6e565b60405180910390f35b6200026f62001284565b6040516200027e919062001a6e565b60405180910390f35b600260009054906101000a900473ffffffffffffffffffffffffffffffffffffffff1681565b6000600260005403620002f7576040517f08c379a0000000000000000000000000000000000000000000000000000000008152600401620002ee9062001cfd565b60405180910390fd5b60026000819055506200030962001a01565b6000806000806000600460009054906101000a900473ffffffffffffffffffffffffffffffffffffffff16905060008173ffffffffffffffffffffffffffffffffffffffff16636352211e8a6040518263ffffffff1660e01b815260040162000373919062001c7f565b602060405180830381865afa15801562000391573d6000803e3d6000fd5b505050506040513d601f19601f82011682018060405250810190620003b7919062001d36565b9050600080600360009054906101000a900473ffffffffffffffffffffffffffffffffffffffff1673ffffffffffffffffffffffffffffffffffffffff1663826d8873600160029054906101000a900473ffffffffffffffffffffffffffffffffffffffff166040518263ffffffff1660e01b81526004016200043b919062001a6e565b600060405180830381865afa15801562000459573d6000803e3d6000fd5b505050506040513d6000823e3d601f19601f8201168201806040525081019062000484919062001f46565b955050505060ff169250508373ffffffffffffffffffffffffffffffffffffffff16633c31457f8c6040518263ffffffff1660e01b8152600401620004ca919062001c7f565b608060405180830381865afa158015620004e8573d6000803e3d6000fd5b505050506040513d601f19601f820116820180604052508101906200050e919062002001565b8c602001819950829b50839a5084815250505050508073ffffffffffffffffffffffffffffffffffffffff166370a08231336040518263ffffffff1660e01b81526004016200055e919062001a6e565b602060405180830381865afa1580156200057c573d6000803e3d6000fd5b505050506040513d601f19601f82011682018060405250810190620005a2919062002073565b896000018181525050886000015189602001511115620005f9576040517f08c379a0000000000000000000000000000000000000000000000000000000008152600401620005f090620020f5565b60405180910390fd5b60008573ffffffffffffffffffffffffffffffffffffffff1663f8b2cb4f600160029054906101000a900473ffffffffffffffffffffffffffffffffffffffff166040518263ffffffff1660e01b815260040162000658919062001a6e565b602060405180830381865afa15801562000676573d6000803e3d6000fd5b505050506040513d601f19601f820116820180604052508101906200069c919062002073565b90506000600267ffffffffffffffff811115620006be57620006bd62001dd8565b5b604051908082528060200260200182016040528015620006ed5781602001602082028036833780820191505090505b5090506000600267ffffffffffffffff81111562000710576200070f62001dd8565b5b6040519080825280602002602001820160405280156200073f5781602001602082028036833780820191505090505b50905085826000815181106200075a576200075962002117565b5b602002602001019073ffffffffffffffffffffffffffffffffffffffff16908173ffffffffffffffffffffffffffffffffffffffff16815250508281600081518110620007ac57620007ab62002117565b5b602002602001018181525050428a111562000838573373ffffffffffffffffffffffffffffffffffffffff168673ffffffffffffffffffffffffffffffffffffffff161462000832576040517f08c379a0000000000000000000000000000000000000000000000000000000008152600401620008299062002196565b60405180910390fd5b6200094f565b6064896019620008499190620021e7565b604b62000857919062002248565b606462000865919062002248565b84620008729190620021e7565b6200087e9190620022b2565b8160008151811062000895576200089462002117565b5b6020026020010181815250503382600181518110620008b957620008b862002117565b5b602002602001019073ffffffffffffffffffffffffffffffffffffffff16908173ffffffffffffffffffffffffffffffffffffffff16815250506064896019620009049190620021e7565b604b62000912919062002248565b846200091f9190620021e7565b6200092b9190620022b2565b8160018151811062000942576200094162002117565b5b6020026020010181815250505b8773ffffffffffffffffffffffffffffffffffffffff1663f6a0b70a600160029054906101000a900473ffffffffffffffffffffffffffffffffffffffff1684846040518463ffffffff1660e01b8152600401620009b093929190620024f1565b600060405180830381600087803b158015620009cb57600080fd5b505af1158015620009e0573d6000803e3d6000fd5b50505050600660009054906101000a900473ffffffffffffffffffffffffffffffffffffffff1673ffffffffffffffffffffffffffffffffffffffff1663a9d7fad560018e6020015188600160029054906101000a900473ffffffffffffffffffffffffffffffffffffffff166040518563ffffffff1660e01b815260040162000a6e9493929190620025bc565b600060405180830381600087803b15801562000a8957600080fd5b505af115801562000a9e573d6000803e3d6000fd5b505050508373ffffffffffffffffffffffffffffffffffffffff166379cc6790338e602001516040518363ffffffff1660e01b815260040162000ae392919062002609565b600060405180830381600087803b15801562000afe57600080fd5b505af115801562000b13573d6000803e3d6000fd5b505050508673ffffffffffffffffffffffffffffffffffffffff166342966c688f6040518263ffffffff1660e01b815260040162000b52919062001c7f565b600060405180830381600087803b15801562000b6d57600080fd5b505af115801562000b82573d6000803e3d6000fd5b505050503373ffffffffffffffffffffffffffffffffffffffff167f0a85198cef8a65c7377dd7916a0ab65fecf8feb745804d13a3d3f60b71b72e638c600160029054906101000a900473ffffffffffffffffffffffffffffffffffffffff168c60405162000bf49392919062002636565b60405180910390a260019c505050505050505050505050506001600081905550919050565b600660009054906101000a900473ffffffffffffffffffffffffffffffffffffffff1681565b600060026000540362000c89576040517f08c379a000000000000000000000000000000000000000000000000000000000815260040162000c809062001cfd565b60405180910390fd5b60026000819055506000600460009054906101000a900473ffffffffffffffffffffffffffffffffffffffff1690506000806000806000600360009054906101000a900473ffffffffffffffffffffffffffffffffffffffff1673ffffffffffffffffffffffffffffffffffffffff1663826d8873600160029054906101000a900473ffffffffffffffffffffffffffffffffffffffff166040518263ffffffff1660e01b815260040162000d3f919062001a6e565b600060405180830381865afa15801562000d5d573d6000803e3d6000fd5b505050506040513d6000823e3d601f19601f8201168201806040525081019062000d88919062001f46565b95505094509450945094506000600360009054906101000a900473ffffffffffffffffffffffffffffffffffffffff1673ffffffffffffffffffffffffffffffffffffffff16634b5fc8db876040518263ffffffff1660e01b815260040162000df2919062001a6e565b602060405180830381865afa15801562000e10573d6000803e3d6000fd5b505050506040513d601f19601f8201168201806040525081019062000e369190620026ae565b90506000670de0b6b3a764000085600a62000e52919062002834565b86600a62000e61919062002834565b62000e6d9190620021e7565b606462000e7b9190620021e7565b838c600281111562000e925762000e916200253c565b5b601962000ea0919062002885565b604b62000eae9190620028c7565b60ff168e62000ebe9190620021e7565b62000eca9190620021e7565b62000ed69190620022b2565b62000ee29190620021e7565b9050600062000ef189620012aa565b905062000f4433828e600160029054906101000a900473ffffffffffffffffffffffffffffffffffffffff1673ffffffffffffffffffffffffffffffffffffffff166200138f909392919063ffffffff16565b600660009054906101000a900473ffffffffffffffffffffffffffffffffffffffff1673ffffffffffffffffffffffffffffffffffffffff1663a9d7fad56000848a600160029054906101000a900473ffffffffffffffffffffffffffffffffffffffff166040518563ffffffff1660e01b815260040162000fca94939291906200293b565b600060405180830381600087803b15801562000fe557600080fd5b505af115801562000ffa573d6000803e3d6000fd5b505050508373ffffffffffffffffffffffffffffffffffffffff166340c10f1933846040518363ffffffff1660e01b81526004016200103b92919062002609565b600060405180830381600087803b1580156200105657600080fd5b505af11580156200106b573d6000803e3d6000fd5b505050506000620010818a8e8e878a876200141c565b90503373ffffffffffffffffffffffffffffffffffffffff167f430552a162a9271a67a2c68d352ebf78508c8778ecb58814fb47b2e2244108e58e84600160029054906101000a900473ffffffffffffffffffffffffffffffffffffffff1685604051620010f3949392919062002988565b60405180910390a260019a5050505050505050505050600160008190555092915050565b600360009054906101000a900473ffffffffffffffffffffffffffffffffffffffff1681565b60006200114b600162001517565b905080156200116f5760018060016101000a81548160ff0219169083151502179055505b6200117e868686868662001614565b8015620011da5760006001806101000a81548160ff0219169083151502179055507f7f26b83ff96e1f2b6a682f133852f6798a09c465da95921460cefb38474024986001604051620011d1919062002a18565b60405180910390a15b505050505050565b600560009054906101000a900473ffffffffffffffffffffffffffffffffffffffff1681565b600460009054906101000a900473ffffffffffffffffffffffffffffffffffffffff1681565b600860009054906101000a900473ffffffffffffffffffffffffffffffffffffffff1681565b60075481565b6000600160029054906101000a900473ffffffffffffffffffffffffffffffffffffffff16905090565b600160029054906101000a900473ffffffffffffffffffffffffffffffffffffffff1681565b60003360018373ffffffffffffffffffffffffffffffffffffffff1663561892366040518163ffffffff1660e01b81526004016020604051808303816000875af1158015620012fd573d6000803e3d6000fd5b505050506040513d601f19601f8201168201806040525081019062001323919062002073565b6200132f919062002a35565b6040516020016200134292919062002609565b60405160208183030381529060405280519060200120604051620013669062001a1b565b8190604051809103906000f590508015801562001387573d6000803e3d6000fd5b509050919050565b62001416846323b872dd60e01b858585604051602401620013b39392919062002a92565b604051602081830303815290604052907bffffffffffffffffffffffffffffffffffffffffffffffffffffffff19166020820180517bffffffffffffffffffffffffffffffffffffffffffffffffffffffff838183161783525050505062001767565b50505050565b60008673ffffffffffffffffffffffffffffffffffffffff166379d0d2fe33600160029054906101000a900473ffffffffffffffffffffffffffffffffffffffff168860028111156200147457620014736200253c565b5b601962001482919062002885565b604b620014909190620028c7565b888b8942620014a0919062002a35565b896040518863ffffffff1660e01b8152600401620014c5979695949392919062002ae0565b6020604051808303816000875af1158015620014e5573d6000803e3d6000fd5b505050506040513d601f19601f820116820180604052508101906200150b919062002073565b90509695505050505050565b600060018054906101000a900460ff1615620015955760018260ff16148015620015495750620015473062001836565b155b6200158b576040517f08c379a0000000000000000000000000000000000000000000000000000000008152600401620015829062002bd3565b60405180910390fd5b600090506200160f565b8160ff16600160009054906101000a900460ff1660ff1610620015ef576040517f08c379a0000000000000000000000000000000000000000000000000000000008152600401620015e69062002bd3565b60405180910390fd5b81600160006101000a81548160ff021916908360ff160217905550600190505b919050565b84600160026101000a81548173ffffffffffffffffffffffffffffffffffffffff021916908373ffffffffffffffffffffffffffffffffffffffff1602179055508160078190555033600360006101000a81548173ffffffffffffffffffffffffffffffffffffffff021916908373ffffffffffffffffffffffffffffffffffffffff16021790555083600460006101000a81548173ffffffffffffffffffffffffffffffffffffffff021916908373ffffffffffffffffffffffffffffffffffffffff16021790555082600560006101000a81548173ffffffffffffffffffffffffffffffffffffffff021916908373ffffffffffffffffffffffffffffffffffffffff16021790555080600660006101000a81548173ffffffffffffffffffffffffffffffffffffffff021916908373ffffffffffffffffffffffffffffffffffffffff1602179055505050505050565b6000620017cb826040518060400160405280602081526020017f5361666545524332303a206c6f772d6c6576656c2063616c6c206661696c65648152508573ffffffffffffffffffffffffffffffffffffffff16620018599092919063ffffffff16565b9050600081511115620018315780806020019051810190620017ee919062002c26565b62001830576040517f08c379a0000000000000000000000000000000000000000000000000000000008152600401620018279062002cce565b60405180910390fd5b5b505050565b6000808273ffffffffffffffffffffffffffffffffffffffff163b119050919050565b60606200186a848460008562001873565b90509392505050565b606082471015620018bb576040517f08c379a0000000000000000000000000000000000000000000000000000000008152600401620018b29062002d66565b60405180910390fd5b620018c68562001836565b62001908576040517f08c379a0000000000000000000000000000000000000000000000000000000008152600401620018ff9062002dd8565b60405180910390fd5b6000808673ffffffffffffffffffffffffffffffffffffffff16858760405162001933919062002e47565b60006040518083038185875af1925050503d806000811462001972576040519150601f19603f3d011682016040523d82523d6000602084013e62001977565b606091505b50915091506200198982828662001995565b92505050949350505050565b60608315620019a757829050620019fa565b600083511115620019bb5782518084602001fd5b816040517f08c379a0000000000000000000000000000000000000000000000000000000008152600401620019f1919062002eac565b60405180910390fd5b9392505050565b604051806040016040528060008152602001600081525090565b610f298062002ed183390190565b600073ffffffffffffffffffffffffffffffffffffffff82169050919050565b600062001a568262001a29565b9050919050565b62001a688162001a49565b82525050565b600060208201905062001a85600083018462001a5d565b92915050565b6000604051905090565b600080fd5b600080fd5b6000819050919050565b62001ab48162001a9f565b811462001ac057600080fd5b50565b60008135905062001ad48162001aa9565b92915050565b60006020828403121562001af35762001af262001a95565b5b600062001b038482850162001ac3565b91505092915050565b60008115159050919050565b62001b238162001b0c565b82525050565b600060208201905062001b40600083018462001b18565b92915050565b6003811062001b5457600080fd5b50565b60008135905062001b688162001b46565b92915050565b6000806040838503121562001b885762001b8762001a95565b5b600062001b988582860162001ac3565b925050602062001bab8582860162001b57565b9150509250929050565b62001bc08162001a49565b811462001bcc57600080fd5b50565b60008135905062001be08162001bb5565b92915050565b600080600080600060a0868803121562001c055762001c0462001a95565b5b600062001c158882890162001bcf565b955050602062001c288882890162001bcf565b945050604062001c3b8882890162001bcf565b935050606062001c4e8882890162001ac3565b925050608062001c618882890162001bcf565b9150509295509295909350565b62001c798162001a9f565b82525050565b600060208201905062001c96600083018462001c6e565b92915050565b600082825260208201905092915050565b7f5265656e7472616e637947756172643a207265656e7472616e742063616c6c00600082015250565b600062001ce5601f8362001c9c565b915062001cf28262001cad565b602082019050919050565b6000602082019050818103600083015262001d188162001cd6565b9050919050565b60008151905062001d308162001bb5565b92915050565b60006020828403121562001d4f5762001d4e62001a95565b5b600062001d5f8482850162001d1f565b91505092915050565b600060ff82169050919050565b62001d808162001d68565b811462001d8c57600080fd5b50565b60008151905062001da08162001d75565b92915050565b60008151905062001db78162001aa9565b92915050565b600080fd5b600080fd5b6000601f19601f8301169050919050565b7f4e487b7100000000000000000000000000000000000000000000000000000000600052604160045260246000fd5b62001e128262001dc7565b810181811067ffffffffffffffff8211171562001e345762001e3362001dd8565b5b80604052505050565b600062001e4962001a8b565b905062001e57828262001e07565b919050565b600067ffffffffffffffff82111562001e7a5762001e7962001dd8565b5b62001e858262001dc7565b9050602081019050919050565b60005b8381101562001eb257808201518184015260208101905062001e95565b8381111562001ec2576000848401525b50505050565b600062001edf62001ed98462001e5c565b62001e3d565b90508281526020810184848401111562001efe5762001efd62001dc2565b5b62001f0b84828562001e92565b509392505050565b600082601f83011262001f2b5762001f2a62001dbd565b5b815162001f3d84826020860162001ec8565b91505092915050565b60008060008060008060c0878903121562001f665762001f6562001a95565b5b600062001f7689828a0162001d1f565b965050602062001f8989828a0162001d8f565b955050604062001f9c89828a0162001d8f565b945050606062001faf89828a0162001da6565b935050608087015167ffffffffffffffff81111562001fd35762001fd262001a9a565b5b62001fe189828a0162001f13565b92505060a062001ff489828a0162001d1f565b9150509295509295509295565b600080600080608085870312156200201e576200201d62001a95565b5b60006200202e8782880162001da6565b9450506020620020418782880162001da6565b9350506040620020548782880162001da6565b9250506060620020678782880162001d1f565b91505092959194509250565b6000602082840312156200208c576200208b62001a95565b5b60006200209c8482850162001da6565b91505092915050565b7f4e656564206d6f72652053746561647900000000000000000000000000000000600082015250565b6000620020dd60108362001c9c565b9150620020ea82620020a5565b602082019050919050565b600060208201905081810360008301526200211081620020ce565b9050919050565b7f4e487b7100000000000000000000000000000000000000000000000000000000600052603260045260246000fd5b7f596f75206e65656420746f206265207468652063726561746f72210000000000600082015250565b60006200217e601b8362001c9c565b91506200218b8262002146565b602082019050919050565b60006020820190508181036000830152620021b1816200216f565b9050919050565b7f4e487b7100000000000000000000000000000000000000000000000000000000600052601160045260246000fd5b6000620021f48262001a9f565b9150620022018362001a9f565b9250817fffffffffffffffffffffffffffffffffffffffffffffffffffffffffffffffff04831182151516156200223d576200223c620021b8565b5b828202905092915050565b6000620022558262001a9f565b9150620022628362001a9f565b925082821015620022785762002277620021b8565b5b828203905092915050565b7f4e487b7100000000000000000000000000000000000000000000000000000000600052601260045260246000fd5b6000620022bf8262001a9f565b9150620022cc8362001a9f565b925082620022df57620022de62002283565b5b828204905092915050565b6000819050919050565b6000620023156200230f620023098462001a29565b620022ea565b62001a29565b9050919050565b60006200232982620022f4565b9050919050565b60006200233d826200231c565b9050919050565b6200234f8162002330565b82525050565b600081519050919050565b600082825260208201905092915050565b6000819050602082019050919050565b6200238c8162001a49565b82525050565b6000620023a0838362002381565b60208301905092915050565b6000602082019050919050565b6000620023c68262002355565b620023d2818562002360565b9350620023df8362002371565b8060005b8381101562002416578151620023fa888262002392565b97506200240783620023ac565b925050600181019050620023e3565b5085935050505092915050565b600081519050919050565b600082825260208201905092915050565b6000819050602082019050919050565b6200245a8162001a9f565b82525050565b60006200246e83836200244f565b60208301905092915050565b6000602082019050919050565b6000620024948262002423565b620024a081856200242e565b9350620024ad836200243f565b8060005b83811015620024e4578151620024c8888262002460565b9750620024d5836200247a565b925050600181019050620024b1565b5085935050505092915050565b600060608201905062002508600083018662002344565b81810360208301526200251c8185620023b9565b9050818103604083015262002532818462002487565b9050949350505050565b7f4e487b7100000000000000000000000000000000000000000000000000000000600052602160045260246000fd5b600581106200257f576200257e6200253c565b5b50565b600081905062002592826200256b565b919050565b6000620025a48262002582565b9050919050565b620025b68162002597565b82525050565b6000608082019050620025d36000830187620025ab565b620025e2602083018662001c6e565b620025f1604083018562001c6e565b62002600606083018462001a5d565b95945050505050565b600060408201905062002620600083018562001a5d565b6200262f602083018462001c6e565b9392505050565b60006060820190506200264d600083018662001c6e565b6200265c602083018562001a5d565b6200266b604083018462001c6e565b949350505050565b6000819050919050565b620026888162002673565b81146200269457600080fd5b50565b600081519050620026a8816200267d565b92915050565b600060208284031215620026c757620026c662001a95565b5b6000620026d78482850162002697565b91505092915050565b60008160011c9050919050565b6000808291508390505b60018511156200273f57808604811115620027175762002716620021b8565b5b6001851615620027275780820291505b80810290506200273785620026e0565b9450620026f7565b94509492505050565b6000826200275a57600190506200282d565b816200276a57600090506200282d565b81600181146200278357600281146200278e57620027c4565b60019150506200282d565b60ff841115620027a357620027a2620021b8565b5b8360020a915084821115620027bd57620027bc620021b8565b5b506200282d565b5060208310610133831016604e8410600b8410161715620027fe5782820a905083811115620027f857620027f7620021b8565b5b6200282d565b6200280d8484846001620026ed565b92509050818404811115620028275762002826620021b8565b5b81810290505b9392505050565b6000620028418262001a9f565b91506200284e8362001d68565b92506200287d7fffffffffffffffffffffffffffffffffffffffffffffffffffffffffffffffff848462002748565b905092915050565b6000620028928262001d68565b91506200289f8362001d68565b92508160ff0483118215151615620028bc57620028bb620021b8565b5b828202905092915050565b6000620028d48262001d68565b9150620028e18362001d68565b925082821015620028f757620028f6620021b8565b5b828203905092915050565b6000620029236200291d620029178462001d68565b620022ea565b62001a9f565b9050919050565b620029358162002902565b82525050565b6000608082019050620029526000830187620025ab565b62002961602083018662001c6e565b6200297060408301856200292a565b6200297f606083018462001a5d565b95945050505050565b60006080820190506200299f600083018762001c6e565b620029ae602083018662001a5d565b620029bd604083018562001a5d565b620029cc606083018462001c6e565b95945050505050565b6000819050919050565b600062002a00620029fa620029f484620029d5565b620022ea565b62001d68565b9050919050565b62002a1281620029df565b82525050565b600060208201905062002a2f600083018462002a07565b92915050565b600062002a428262001a9f565b915062002a4f8362001a9f565b9250827fffffffffffffffffffffffffffffffffffffffffffffffffffffffffffffffff0382111562002a875762002a86620021b8565b5b828201905092915050565b600060608201905062002aa9600083018662001a5d565b62002ab8602083018562001a5d565b62002ac7604083018462001c6e565b949350505050565b62002ada8162001d68565b82525050565b600060e08201905062002af7600083018a62001a5d565b62002b06602083018962001a5d565b62002b15604083018862002acf565b62002b24606083018762001c6e565b62002b33608083018662001c6e565b62002b4260a083018562001c6e565b62002b5160c083018462001a5d565b98975050505050505050565b7f496e697469616c697a61626c653a20636f6e747261637420697320616c72656160008201527f647920696e697469616c697a6564000000000000000000000000000000000000602082015250565b600062002bbb602e8362001c9c565b915062002bc88262002b5d565b604082019050919050565b6000602082019050818103600083015262002bee8162002bac565b9050919050565b62002c008162001b0c565b811462002c0c57600080fd5b50565b60008151905062002c208162002bf5565b92915050565b60006020828403121562002c3f5762002c3e62001a95565b5b600062002c4f8482850162002c0f565b91505092915050565b7f5361666545524332303a204552433230206f7065726174696f6e20646964206e60008201527f6f74207375636365656400000000000000000000000000000000000000000000602082015250565b600062002cb6602a8362001c9c565b915062002cc38262002c58565b604082019050919050565b6000602082019050818103600083015262002ce98162002ca7565b9050919050565b7f416464726573733a20696e73756666696369656e742062616c616e636520666f60008201527f722063616c6c0000000000000000000000000000000000000000000000000000602082015250565b600062002d4e60268362001c9c565b915062002d5b8262002cf0565b604082019050919050565b6000602082019050818103600083015262002d818162002d3f565b9050919050565b7f416464726573733a2063616c6c20746f206e6f6e2d636f6e7472616374000000600082015250565b600062002dc0601d8362001c9c565b915062002dcd8262002d88565b602082019050919050565b6000602082019050818103600083015262002df38162002db1565b9050919050565b600081519050919050565b600081905092915050565b600062002e1d8262002dfa565b62002e29818562002e05565b935062002e3b81856020860162001e92565b80840191505092915050565b600062002e55828462002e10565b915081905092915050565b600081519050919050565b600062002e788262002e60565b62002e84818562001c9c565b935062002e9681856020860162001e92565b62002ea18162001dc7565b840191505092915050565b6000602082019050818103600083015262002ec8818462002e6b565b90509291505056fe608060405234801561001057600080fd5b5061002d61002261003260201b60201c565b61003a60201b60201c565b6100fe565b600033905090565b60008060009054906101000a900473ffffffffffffffffffffffffffffffffffffffff169050816000806101000a81548173ffffffffffffffffffffffffffffffffffffffff021916908373ffffffffffffffffffffffffffffffffffffffff1602179055508173ffffffffffffffffffffffffffffffffffffffff168173ffffffffffffffffffffffffffffffffffffffff167f8be0079c531659141344cd1fd0a4f28419497f9722a3daafe3b4186f6b6457e060405160405180910390a35050565b610e1c8061010d6000396000f3fe608060405234801561001057600080fd5b50600436106100575760003560e01c8063715018a61461005c5780638da5cb5b14610066578063f2fde38b14610084578063f6a0b70a146100a0578063f8b2cb4f146100bc575b600080fd5b6100646100ec565b005b61006e610174565b60405161007b91906106bc565b60405180910390f35b61009e60048036038101906100999190610717565b61019d565b005b6100ba60048036038101906100b591906109d4565b610294565b005b6100d660048036038101906100d19190610717565b61052c565b6040516100e39190610a6e565b60405180910390f35b6100f46105af565b73ffffffffffffffffffffffffffffffffffffffff16610112610174565b73ffffffffffffffffffffffffffffffffffffffff1614610168576040517f08c379a000000000000000000000000000000000000000000000000000000000815260040161015f90610ae6565b60405180910390fd5b61017260006105b7565b565b60008060009054906101000a900473ffffffffffffffffffffffffffffffffffffffff16905090565b6101a56105af565b73ffffffffffffffffffffffffffffffffffffffff166101c3610174565b73ffffffffffffffffffffffffffffffffffffffff1614610219576040517f08c379a000000000000000000000000000000000000000000000000000000000815260040161021090610ae6565b60405180910390fd5b600073ffffffffffffffffffffffffffffffffffffffff168173ffffffffffffffffffffffffffffffffffffffff1603610288576040517f08c379a000000000000000000000000000000000000000000000000000000000815260040161027f90610b78565b60405180910390fd5b610291816105b7565b50565b61029c6105af565b73ffffffffffffffffffffffffffffffffffffffff166102ba610174565b73ffffffffffffffffffffffffffffffffffffffff1614610310576040517f08c379a000000000000000000000000000000000000000000000000000000000815260040161030790610ae6565b60405180910390fd5b8051825114610354576040517f08c379a000000000000000000000000000000000000000000000000000000000815260040161034b90610be4565b60405180910390fd5b60005b825181101561051257600073ffffffffffffffffffffffffffffffffffffffff1683828151811061038b5761038a610c04565b5b602002602001015173ffffffffffffffffffffffffffffffffffffffff16146104ff578373ffffffffffffffffffffffffffffffffffffffff1663a9059cbb8483815181106103dd576103dc610c04565b5b60200260200101518673ffffffffffffffffffffffffffffffffffffffff166370a08231306040518263ffffffff1660e01b815260040161041e91906106bc565b602060405180830381865afa15801561043b573d6000803e3d6000fd5b505050506040513d601f19601f8201168201806040525081019061045f9190610c48565b6040518363ffffffff1660e01b815260040161047c929190610c75565b6020604051808303816000875af115801561049b573d6000803e3d6000fd5b505050506040513d601f19601f820116820180604052508101906104bf9190610cd6565b6104fe576040517f08c379a00000000000000000000000000000000000000000000000000000000081526004016104f590610d4f565b60405180910390fd5b5b808061050a90610d9e565b915050610357565b503373ffffffffffffffffffffffffffffffffffffffff16ff5b60008173ffffffffffffffffffffffffffffffffffffffff166370a08231306040518263ffffffff1660e01b815260040161056791906106bc565b602060405180830381865afa158015610584573d6000803e3d6000fd5b505050506040513d601f19601f820116820180604052508101906105a89190610c48565b9050919050565b600033905090565b60008060009054906101000a900473ffffffffffffffffffffffffffffffffffffffff169050816000806101000a81548173ffffffffffffffffffffffffffffffffffffffff021916908373ffffffffffffffffffffffffffffffffffffffff1602179055508173ffffffffffffffffffffffffffffffffffffffff168173ffffffffffffffffffffffffffffffffffffffff167f8be0079c531659141344cd1fd0a4f28419497f9722a3daafe3b4186f6b6457e060405160405180910390a35050565b600073ffffffffffffffffffffffffffffffffffffffff82169050919050565b60006106a68261067b565b9050919050565b6106b68161069b565b82525050565b60006020820190506106d160008301846106ad565b92915050565b6000604051905090565b600080fd5b600080fd5b6106f48161069b565b81146106ff57600080fd5b50565b600081359050610711816106eb565b92915050565b60006020828403121561072d5761072c6106e1565b5b600061073b84828501610702565b91505092915050565b600061074f8261069b565b9050919050565b61075f81610744565b811461076a57600080fd5b50565b60008135905061077c81610756565b92915050565b600080fd5b6000601f19601f8301169050919050565b7f4e487b7100000000000000000000000000000000000000000000000000000000600052604160045260246000fd5b6107d082610787565b810181811067ffffffffffffffff821117156107ef576107ee610798565b5b80604052505050565b60006108026106d7565b905061080e82826107c7565b919050565b600067ffffffffffffffff82111561082e5761082d610798565b5b602082029050602081019050919050565b600080fd5b600061085761085284610813565b6107f8565b9050808382526020820190506020840283018581111561087a5761087961083f565b5b835b818110156108a3578061088f8882610702565b84526020840193505060208101905061087c565b5050509392505050565b600082601f8301126108c2576108c1610782565b5b81356108d2848260208601610844565b91505092915050565b600067ffffffffffffffff8211156108f6576108f5610798565b5b602082029050602081019050919050565b6000819050919050565b61091a81610907565b811461092557600080fd5b50565b60008135905061093781610911565b92915050565b600061095061094b846108db565b6107f8565b905080838252602082019050602084028301858111156109735761097261083f565b5b835b8181101561099c57806109888882610928565b845260208401935050602081019050610975565b5050509392505050565b600082601f8301126109bb576109ba610782565b5b81356109cb84826020860161093d565b91505092915050565b6000806000606084860312156109ed576109ec6106e1565b5b60006109fb8682870161076d565b935050602084013567ffffffffffffffff811115610a1c57610a1b6106e6565b5b610a28868287016108ad565b925050604084013567ffffffffffffffff811115610a4957610a486106e6565b5b610a55868287016109a6565b9150509250925092565b610a6881610907565b82525050565b6000602082019050610a836000830184610a5f565b92915050565b600082825260208201905092915050565b7f4f776e61626c653a2063616c6c6572206973206e6f7420746865206f776e6572600082015250565b6000610ad0602083610a89565b9150610adb82610a9a565b602082019050919050565b60006020820190508181036000830152610aff81610ac3565b9050919050565b7f4f776e61626c653a206e6577206f776e657220697320746865207a65726f206160008201527f6464726573730000000000000000000000000000000000000000000000000000602082015250565b6000610b62602683610a89565b9150610b6d82610b06565b604082019050919050565b60006020820190508181036000830152610b9181610b55565b9050919050565b7f4d69736d6174636820696e20616c6c6f636174696f6e00000000000000000000600082015250565b6000610bce601683610a89565b9150610bd982610b98565b602082019050919050565b60006020820190508181036000830152610bfd81610bc1565b9050919050565b7f4e487b7100000000000000000000000000000000000000000000000000000000600052603260045260246000fd5b600081519050610c4281610911565b92915050565b600060208284031215610c5e57610c5d6106e1565b5b6000610c6c84828501610c33565b91505092915050565b6000604082019050610c8a60008301856106ad565b610c976020830184610a5f565b9392505050565b60008115159050919050565b610cb381610c9e565b8114610cbe57600080fd5b50565b600081519050610cd081610caa565b92915050565b600060208284031215610cec57610ceb6106e1565b5b6000610cfa84828501610cc1565b91505092915050565b7f5472616e73666572206661696c65640000000000000000000000000000000000600082015250565b6000610d39600f83610a89565b9150610d4482610d03565b602082019050919050565b60006020820190508181036000830152610d6881610d2c565b9050919050565b7f4e487b7100000000000000000000000000000000000000000000000000000000600052601160045260246000fd5b6000610da982610907565b91507fffffffffffffffffffffffffffffffffffffffffffffffffffffffffffffffff8203610ddb57610dda610d6f565b5b60018201905091905056fea264697066735822122046d28262566141b815cb24ab67a12208f8fa196779b014079166999e635f240c64736f6c634300080d0033a26469706673582212200a4ec56acdc89bd484220af7c6017b8d9edb62104599dc3a8ee37400a3e2b56864736f6c634300080d0033",
  "linkReferences": {},
  "deployedLinkReferences": {}
}