{
  "_format": "hh-sol-artifact-1",
  "contractName": "Alchemist",
  "sourceName": "contracts/Alchemist.sol",
  "abi": [
    {
      "anonymous": false,
      "inputs": [
        {
          "indexed": false,
          "internalType": "uint8",
          "name": "version",
          "type": "uint8"
        }
      ],
      "name": "Initialized",
      "type": "event"
    },
    {
      "anonymous": false,
      "inputs": [
        {
          "indexed": true,
          "internalType": "address",
          "name": "source",
          "type": "address"
        },
        {
          "indexed": false,
          "internalType": "uint256",
          "name": "mergedAmount",
          "type": "uint256"
        },
        {
          "indexed": false,
          "internalType": "address",
          "name": "chyme",
          "type": "address"
        },
        {
          "indexed": false,
          "internalType": "uint256",
          "name": "tokenid",
          "type": "uint256"
        }
      ],
      "name": "Merge",
      "type": "event"
    },
    {
      "anonymous": false,
      "inputs": [
        {
          "indexed": true,
          "internalType": "address",
          "name": "source",
          "type": "address"
        },
        {
          "indexed": false,
          "internalType": "uint256",
          "name": "splitAmount",
          "type": "uint256"
        },
        {
          "indexed": false,
          "internalType": "address",
          "name": "chymeVaultDeployed",
          "type": "address"
        },
        {
          "indexed": false,
          "internalType": "address",
          "name": "chyme",
          "type": "address"
        },
        {
          "indexed": false,
          "internalType": "uint256",
          "name": "tokenId",
          "type": "uint256"
        }
      ],
      "name": "Split",
      "type": "event"
    },
    {
      "inputs": [],
      "name": "academy",
      "outputs": [
        {
          "internalType": "address",
          "name": "",
          "type": "address"
        }
      ],
      "stateMutability": "view",
      "type": "function"
    },
    {
      "inputs": [],
      "name": "chyme",
      "outputs": [
        {
          "internalType": "address",
          "name": "",
          "type": "address"
        }
      ],
      "stateMutability": "view",
      "type": "function"
    },
    {
      "inputs": [],
      "name": "elixirImpl",
      "outputs": [
        {
          "internalType": "address",
          "name": "",
          "type": "address"
        }
      ],
      "stateMutability": "view",
      "type": "function"
    },
    {
      "inputs": [],
      "name": "getChyme",
      "outputs": [
        {
          "internalType": "address",
          "name": "",
          "type": "address"
        }
      ],
      "stateMutability": "view",
      "type": "function"
    },
    {
      "inputs": [
        {
          "internalType": "address",
          "name": "_chyme",
          "type": "address"
        }
      ],
      "name": "initialize",
      "outputs": [],
      "stateMutability": "nonpayable",
      "type": "function"
    },
    {
      "inputs": [
        {
          "internalType": "uint256",
          "name": "tokenId",
          "type": "uint256"
        }
      ],
      "name": "merge",
      "outputs": [
        {
          "internalType": "bool",
          "name": "",
          "type": "bool"
        }
      ],
      "stateMutability": "nonpayable",
      "type": "function"
    },
    {
      "inputs": [
        {
          "internalType": "uint256",
          "name": "amount",
          "type": "uint256"
        },
        {
          "internalType": "enum Alchemist.Ratios",
          "name": "ratioOfSteady",
          "type": "uint8"
        }
      ],
      "name": "split",
      "outputs": [
        {
          "internalType": "bool",
          "name": "",
          "type": "bool"
        }
      ],
      "stateMutability": "nonpayable",
      "type": "function"
    }
  ],
  "bytecode": "0x608060405234801561001057600080fd5b506001600081905550613bbb806100286000396000f3fe60806040523480156200001157600080fd5b5060043610620000885760003560e01c806364b6a148116200006357806364b6a148146200011b578063a51d2533146200013d578063c4d66de8146200015f578063fb6e8962146200017f5762000088565b806324a47aeb146200008d5780634cd6d7ab14620000c35780634f5fc3c114620000f9575b600080fd5b620000ab6004803603810190620000a591906200186e565b620001a1565b604051620000ba9190620018bd565b60405180910390f35b620000e16004803603810190620000db919062001902565b62000b2e565b604051620000f09190620018bd565b60405180910390f35b6200010362000fbe565b6040516200011291906200198e565b60405180910390f35b6200012562000fe4565b6040516200013491906200198e565b60405180910390f35b6200014762000ffc565b6040516200015691906200198e565b60405180910390f35b6200017d6004803603810190620001779190620019dc565b62001026565b005b620001896200118f565b6040516200019891906200198e565b60405180910390f35b6000600260005403620001eb576040517f08c379a0000000000000000000000000000000000000000000000000000000008152600401620001e29062001a6f565b60405180910390fd5b6002600081905550620001fd620017f7565b6000806000806000600160029054906101000a900473ffffffffffffffffffffffffffffffffffffffff1673ffffffffffffffffffffffffffffffffffffffff16636352211e896040518263ffffffff1660e01b815260040162000262919062001aa2565b602060405180830381865afa15801562000280573d6000803e3d6000fd5b505050506040513d601f19601f82011682018060405250810190620002a6919062001ad6565b90506000806000600260009054906101000a900473ffffffffffffffffffffffffffffffffffffffff1673ffffffffffffffffffffffffffffffffffffffff1663826d8873600360009054906101000a900473ffffffffffffffffffffffffffffffffffffffff166040518263ffffffff1660e01b81526004016200032c91906200198e565b600060405180830381865afa1580156200034a573d6000803e3d6000fd5b505050506040513d6000823e3d601f19601f8201168201806040525081019062000375919062001cdc565b9650965050505060ff16935050600160029054906101000a900473ffffffffffffffffffffffffffffffffffffffff1673ffffffffffffffffffffffffffffffffffffffff16633c31457f8c6040518263ffffffff1660e01b8152600401620003df919062001aa2565b608060405180830381865afa158015620003fd573d6000803e3d6000fd5b505050506040513d601f19601f8201168201806040525081019062000423919062001dae565b8c602001819950829b50839a5084815250505050508173ffffffffffffffffffffffffffffffffffffffff166370a08231336040518263ffffffff1660e01b81526004016200047391906200198e565b602060405180830381865afa15801562000491573d6000803e3d6000fd5b505050506040513d601f19601f82011682018060405250810190620004b7919062001e20565b8960000181815250508860000151896020015111156200050e576040517f08c379a0000000000000000000000000000000000000000000000000000000008152600401620005059062001ea2565b60405180910390fd5b60008573ffffffffffffffffffffffffffffffffffffffff1663f8b2cb4f600360009054906101000a900473ffffffffffffffffffffffffffffffffffffffff166040518263ffffffff1660e01b81526004016200056d91906200198e565b602060405180830381865afa1580156200058b573d6000803e3d6000fd5b505050506040513d601f19601f82011682018060405250810190620005b1919062001e20565b90506000600267ffffffffffffffff811115620005d357620005d262001b78565b5b604051908082528060200260200182016040528015620006025781602001602082028036833780820191505090505b5090506000600267ffffffffffffffff81111562000625576200062462001b78565b5b604051908082528060200260200182016040528015620006545781602001602082028036833780820191505090505b50905086826000815181106200066f576200066e62001ec4565b5b602002602001019073ffffffffffffffffffffffffffffffffffffffff16908173ffffffffffffffffffffffffffffffffffffffff16815250508281600081518110620006c157620006c062001ec4565b5b602002602001018181525050428a11156200074d573373ffffffffffffffffffffffffffffffffffffffff168773ffffffffffffffffffffffffffffffffffffffff161462000747576040517f08c379a00000000000000000000000000000000000000000000000000000000081526004016200073e9062001f43565b60405180910390fd5b62000864565b60648960196200075e919062001f94565b604b6200076c919062001ff5565b60646200077a919062001ff5565b8462000787919062001f94565b6200079391906200205f565b81600081518110620007aa57620007a962001ec4565b5b6020026020010181815250503382600181518110620007ce57620007cd62001ec4565b5b602002602001019073ffffffffffffffffffffffffffffffffffffffff16908173ffffffffffffffffffffffffffffffffffffffff1681525050606489601962000819919062001f94565b604b62000827919062001ff5565b8462000834919062001f94565b6200084091906200205f565b8160018151811062000857576200085662001ec4565b5b6020026020010181815250505b8773ffffffffffffffffffffffffffffffffffffffff1663f6a0b70a600360009054906101000a900473ffffffffffffffffffffffffffffffffffffffff1684846040518463ffffffff1660e01b8152600401620008c5939291906200229e565b600060405180830381600087803b158015620008e057600080fd5b505af1158015620008f5573d6000803e3d6000fd5b505050508373ffffffffffffffffffffffffffffffffffffffff1663a9d7fad560018e6020015189600360009054906101000a900473ffffffffffffffffffffffffffffffffffffffff166040518563ffffffff1660e01b815260040162000961949392919062002369565b600060405180830381600087803b1580156200097c57600080fd5b505af115801562000991573d6000803e3d6000fd5b505050508473ffffffffffffffffffffffffffffffffffffffff166379cc6790338e602001516040518363ffffffff1660e01b8152600401620009d6929190620023b6565b600060405180830381600087803b158015620009f157600080fd5b505af115801562000a06573d6000803e3d6000fd5b50505050600160029054906101000a900473ffffffffffffffffffffffffffffffffffffffff1673ffffffffffffffffffffffffffffffffffffffff166342966c688f6040518263ffffffff1660e01b815260040162000a67919062001aa2565b600060405180830381600087803b15801562000a8257600080fd5b505af115801562000a97573d6000803e3d6000fd5b505050503373ffffffffffffffffffffffffffffffffffffffff167f0a85198cef8a65c7377dd7916a0ab65fecf8feb745804d13a3d3f60b71b72e638c600360009054906101000a900473ffffffffffffffffffffffffffffffffffffffff168c60405162000b0993929190620023e3565b60405180910390a260019c505050505050505050505050506001600081905550919050565b600060026000540362000b78576040517f08c379a000000000000000000000000000000000000000000000000000000000815260040162000b6f9062001a6f565b60405180910390fd5b6002600081905550600080600080600080600260009054906101000a900473ffffffffffffffffffffffffffffffffffffffff1673ffffffffffffffffffffffffffffffffffffffff1663826d8873600360009054906101000a900473ffffffffffffffffffffffffffffffffffffffff166040518263ffffffff1660e01b815260040162000c0891906200198e565b600060405180830381865afa15801562000c26573d6000803e3d6000fd5b505050506040513d6000823e3d601f19601f8201168201806040525081019062000c51919062001cdc565b965096505095509550955095506000600260009054906101000a900473ffffffffffffffffffffffffffffffffffffffff1673ffffffffffffffffffffffffffffffffffffffff16634b5fc8db886040518263ffffffff1660e01b815260040162000cbd91906200198e565b602060405180830381865afa15801562000cdb573d6000803e3d6000fd5b505050506040513d601f19601f8201168201806040525081019062000d0191906200245b565b90506000670de0b6b3a764000086600a62000d1d9190620025e1565b87600a62000d2c9190620025e1565b62000d38919062001f94565b606462000d46919062001f94565b838c600281111562000d5d5762000d5c620022e9565b5b601962000d6b919062002632565b604b62000d79919062002674565b60ff168e62000d89919062001f94565b62000d95919062001f94565b62000da191906200205f565b62000dad919062001f94565b9050600062000dbb620011b5565b905062000e0e33828e600360009054906101000a900473ffffffffffffffffffffffffffffffffffffffff1673ffffffffffffffffffffffffffffffffffffffff16620012b7909392919063ffffffff16565b8373ffffffffffffffffffffffffffffffffffffffff1663a9d7fad56000848b600360009054906101000a900473ffffffffffffffffffffffffffffffffffffffff166040518563ffffffff1660e01b815260040162000e729493929190620026e9565b600060405180830381600087803b15801562000e8d57600080fd5b505af115801562000ea2573d6000803e3d6000fd5b505050508473ffffffffffffffffffffffffffffffffffffffff166340c10f1933846040518363ffffffff1660e01b815260040162000ee3929190620023b6565b600060405180830381600087803b15801562000efe57600080fd5b505af115801562000f13573d6000803e3d6000fd5b50505050600062000f288d8d868a8662001344565b90503373ffffffffffffffffffffffffffffffffffffffff167f430552a162a9271a67a2c68d352ebf78508c8778ecb58814fb47b2e2244108e58e84600360009054906101000a900473ffffffffffffffffffffffffffffffffffffffff168560405162000f9a949392919062002736565b60405180910390a260019a5050505050505050505050600160008190555092915050565b600260009054906101000a900473ffffffffffffffffffffffffffffffffffffffff1681565b7370b0fbacb4a6b1c0bf09cddef4ce2b908f87df1881565b6000600360009054906101000a900473ffffffffffffffffffffffffffffffffffffffff16905090565b600062001034600162001460565b90508015620010585760018060016101000a81548160ff0219169083151502179055505b81600360006101000a81548173ffffffffffffffffffffffffffffffffffffffff021916908373ffffffffffffffffffffffffffffffffffffffff16021790555033600260006101000a81548173ffffffffffffffffffffffffffffffffffffffff021916908373ffffffffffffffffffffffffffffffffffffffff1602179055507370b0fbacb4a6b1c0bf09cddef4ce2b908f87df18600160026101000a81548173ffffffffffffffffffffffffffffffffffffffff021916908373ffffffffffffffffffffffffffffffffffffffff16021790555080156200118b5760006001806101000a81548160ff0219169083151502179055507f7f26b83ff96e1f2b6a682f133852f6798a09c465da95921460cefb38474024986001604051620011829190620027c6565b60405180910390a15b5050565b600360009054906101000a900473ffffffffffffffffffffffffffffffffffffffff1681565b60003360018060029054906101000a900473ffffffffffffffffffffffffffffffffffffffff1673ffffffffffffffffffffffffffffffffffffffff1663561892366040518163ffffffff1660e01b8152600401602060405180830381865afa15801562001227573d6000803e3d6000fd5b505050506040513d601f19601f820116820180604052508101906200124d919062001e20565b620012599190620027e3565b6040516020016200126c929190620023b6565b60405160208183030381529060405280519060200120604051620012909062001811565b8190604051809103906000f5905080158015620012b1573d6000803e3d6000fd5b50905090565b6200133e846323b872dd60e01b858585604051602401620012db939291906200281e565b604051602081830303815290604052907bffffffffffffffffffffffffffffffffffffffffffffffffffffffff19166020820180517bffffffffffffffffffffffffffffffffffffffffffffffffffffffff83818316178352505050506200155d565b50505050565b6000600160029054906101000a900473ffffffffffffffffffffffffffffffffffffffff1673ffffffffffffffffffffffffffffffffffffffff166379d0d2fe33600360009054906101000a900473ffffffffffffffffffffffffffffffffffffffff16886002811115620013be57620013bd620022e9565b5b6019620013cc919062002632565b604b620013da919062002674565b888b8942620013ea9190620027e3565b896040518863ffffffff1660e01b81526004016200140f97969594939291906200286c565b6020604051808303816000875af11580156200142f573d6000803e3d6000fd5b505050506040513d601f19601f8201168201806040525081019062001455919062001e20565b905095945050505050565b600060018054906101000a900460ff1615620014de5760018260ff1614801562001492575062001490306200162c565b155b620014d4576040517f08c379a0000000000000000000000000000000000000000000000000000000008152600401620014cb906200295f565b60405180910390fd5b6000905062001558565b8160ff16600160009054906101000a900460ff1660ff161062001538576040517f08c379a00000000000000000000000000000000000000000000000000000000081526004016200152f906200295f565b60405180910390fd5b81600160006101000a81548160ff021916908360ff160217905550600190505b919050565b6000620015c1826040518060400160405280602081526020017f5361666545524332303a206c6f772d6c6576656c2063616c6c206661696c65648152508573ffffffffffffffffffffffffffffffffffffffff166200164f9092919063ffffffff16565b9050600081511115620016275780806020019051810190620015e49190620029b2565b62001626576040517f08c379a00000000000000000000000000000000000000000000000000000000081526004016200161d9062002a5a565b60405180910390fd5b5b505050565b6000808273ffffffffffffffffffffffffffffffffffffffff163b119050919050565b606062001660848460008562001669565b90509392505050565b606082471015620016b1576040517f08c379a0000000000000000000000000000000000000000000000000000000008152600401620016a89062002af2565b60405180910390fd5b620016bc856200162c565b620016fe576040517f08c379a0000000000000000000000000000000000000000000000000000000008152600401620016f59062002b64565b60405180910390fd5b6000808673ffffffffffffffffffffffffffffffffffffffff16858760405162001729919062002bd3565b60006040518083038185875af1925050503d806000811462001768576040519150601f19603f3d011682016040523d82523d6000602084013e6200176d565b606091505b50915091506200177f8282866200178b565b92505050949350505050565b606083156200179d57829050620017f0565b600083511115620017b15782518084602001fd5b816040517f08c379a0000000000000000000000000000000000000000000000000000000008152600401620017e7919062002c38565b60405180910390fd5b9392505050565b604051806040016040528060008152602001600081525090565b610f298062002c5d83390190565b6000604051905090565b600080fd5b600080fd5b6000819050919050565b620018488162001833565b81146200185457600080fd5b50565b60008135905062001868816200183d565b92915050565b60006020828403121562001887576200188662001829565b5b6000620018978482850162001857565b91505092915050565b60008115159050919050565b620018b781620018a0565b82525050565b6000602082019050620018d46000830184620018ac565b92915050565b60038110620018e857600080fd5b50565b600081359050620018fc81620018da565b92915050565b600080604083850312156200191c576200191b62001829565b5b60006200192c8582860162001857565b92505060206200193f85828601620018eb565b9150509250929050565b600073ffffffffffffffffffffffffffffffffffffffff82169050919050565b6000620019768262001949565b9050919050565b620019888162001969565b82525050565b6000602082019050620019a560008301846200197d565b92915050565b620019b68162001969565b8114620019c257600080fd5b50565b600081359050620019d681620019ab565b92915050565b600060208284031215620019f557620019f462001829565b5b600062001a0584828501620019c5565b91505092915050565b600082825260208201905092915050565b7f5265656e7472616e637947756172643a207265656e7472616e742063616c6c00600082015250565b600062001a57601f8362001a0e565b915062001a648262001a1f565b602082019050919050565b6000602082019050818103600083015262001a8a8162001a48565b9050919050565b62001a9c8162001833565b82525050565b600060208201905062001ab9600083018462001a91565b92915050565b60008151905062001ad081620019ab565b92915050565b60006020828403121562001aef5762001aee62001829565b5b600062001aff8482850162001abf565b91505092915050565b600060ff82169050919050565b62001b208162001b08565b811462001b2c57600080fd5b50565b60008151905062001b408162001b15565b92915050565b60008151905062001b57816200183d565b92915050565b600080fd5b600080fd5b6000601f19601f8301169050919050565b7f4e487b7100000000000000000000000000000000000000000000000000000000600052604160045260246000fd5b62001bb28262001b67565b810181811067ffffffffffffffff8211171562001bd45762001bd362001b78565b5b80604052505050565b600062001be96200181f565b905062001bf7828262001ba7565b919050565b600067ffffffffffffffff82111562001c1a5762001c1962001b78565b5b62001c258262001b67565b9050602081019050919050565b60005b8381101562001c5257808201518184015260208101905062001c35565b60008484015250505050565b600062001c7562001c6f8462001bfc565b62001bdd565b90508281526020810184848401111562001c945762001c9362001b62565b5b62001ca184828562001c32565b509392505050565b600082601f83011262001cc15762001cc062001b5d565b5b815162001cd384826020860162001c5e565b91505092915050565b600080600080600080600060e0888a03121562001cfe5762001cfd62001829565b5b600062001d0e8a828b0162001abf565b975050602062001d218a828b0162001b2f565b965050604062001d348a828b0162001b2f565b955050606062001d478a828b0162001b46565b945050608088015167ffffffffffffffff81111562001d6b5762001d6a6200182e565b5b62001d798a828b0162001ca9565b93505060a062001d8c8a828b0162001abf565b92505060c062001d9f8a828b0162001abf565b91505092959891949750929550565b6000806000806080858703121562001dcb5762001dca62001829565b5b600062001ddb8782880162001b46565b945050602062001dee8782880162001b46565b935050604062001e018782880162001b46565b925050606062001e148782880162001abf565b91505092959194509250565b60006020828403121562001e395762001e3862001829565b5b600062001e498482850162001b46565b91505092915050565b7f4e656564206d6f72652053746561647900000000000000000000000000000000600082015250565b600062001e8a60108362001a0e565b915062001e978262001e52565b602082019050919050565b6000602082019050818103600083015262001ebd8162001e7b565b9050919050565b7f4e487b7100000000000000000000000000000000000000000000000000000000600052603260045260246000fd5b7f596f75206e65656420746f206265207468652063726561746f72210000000000600082015250565b600062001f2b601b8362001a0e565b915062001f388262001ef3565b602082019050919050565b6000602082019050818103600083015262001f5e8162001f1c565b9050919050565b7f4e487b7100000000000000000000000000000000000000000000000000000000600052601160045260246000fd5b600062001fa18262001833565b915062001fae8362001833565b9250817fffffffffffffffffffffffffffffffffffffffffffffffffffffffffffffffff048311821515161562001fea5762001fe962001f65565b5b828202905092915050565b6000620020028262001833565b91506200200f8362001833565b92508282039050818111156200202a576200202962001f65565b5b92915050565b7f4e487b7100000000000000000000000000000000000000000000000000000000600052601260045260246000fd5b60006200206c8262001833565b9150620020798362001833565b9250826200208c576200208b62002030565b5b828204905092915050565b6000819050919050565b6000620020c2620020bc620020b68462001949565b62002097565b62001949565b9050919050565b6000620020d682620020a1565b9050919050565b6000620020ea82620020c9565b9050919050565b620020fc81620020dd565b82525050565b600081519050919050565b600082825260208201905092915050565b6000819050602082019050919050565b620021398162001969565b82525050565b60006200214d83836200212e565b60208301905092915050565b6000602082019050919050565b6000620021738262002102565b6200217f81856200210d565b93506200218c836200211e565b8060005b83811015620021c3578151620021a788826200213f565b9750620021b48362002159565b92505060018101905062002190565b5085935050505092915050565b600081519050919050565b600082825260208201905092915050565b6000819050602082019050919050565b620022078162001833565b82525050565b60006200221b8383620021fc565b60208301905092915050565b6000602082019050919050565b60006200224182620021d0565b6200224d8185620021db565b93506200225a83620021ec565b8060005b83811015620022915781516200227588826200220d565b9750620022828362002227565b9250506001810190506200225e565b5085935050505092915050565b6000606082019050620022b56000830186620020f1565b8181036020830152620022c9818562002166565b90508181036040830152620022df818462002234565b9050949350505050565b7f4e487b7100000000000000000000000000000000000000000000000000000000600052602160045260246000fd5b600581106200232c576200232b620022e9565b5b50565b60008190506200233f8262002318565b919050565b600062002351826200232f565b9050919050565b620023638162002344565b82525050565b600060808201905062002380600083018762002358565b6200238f602083018662001a91565b6200239e604083018562001a91565b620023ad60608301846200197d565b95945050505050565b6000604082019050620023cd60008301856200197d565b620023dc602083018462001a91565b9392505050565b6000606082019050620023fa600083018662001a91565b6200240960208301856200197d565b62002418604083018462001a91565b949350505050565b6000819050919050565b620024358162002420565b81146200244157600080fd5b50565b60008151905062002455816200242a565b92915050565b60006020828403121562002474576200247362001829565b5b6000620024848482850162002444565b91505092915050565b60008160011c9050919050565b6000808291508390505b6001851115620024ec57808604811115620024c457620024c362001f65565b5b6001851615620024d45780820291505b8081029050620024e4856200248d565b9450620024a4565b94509492505050565b600082620025075760019050620025da565b81620025175760009050620025da565b81600181146200253057600281146200253b5762002571565b6001915050620025da565b60ff84111562002550576200254f62001f65565b5b8360020a9150848211156200256a576200256962001f65565b5b50620025da565b5060208310610133831016604e8410600b8410161715620025ab5782820a905083811115620025a557620025a462001f65565b5b620025da565b620025ba84848460016200249a565b92509050818404811115620025d457620025d362001f65565b5b81810290505b9392505050565b6000620025ee8262001833565b9150620025fb8362001b08565b92506200262a7fffffffffffffffffffffffffffffffffffffffffffffffffffffffffffffffff8484620024f5565b905092915050565b60006200263f8262001b08565b91506200264c8362001b08565b92508160ff048311821515161562002669576200266862001f65565b5b828202905092915050565b6000620026818262001b08565b91506200268e8362001b08565b9250828203905060ff811115620026aa57620026a962001f65565b5b92915050565b6000620026d1620026cb620026c58462001b08565b62002097565b62001833565b9050919050565b620026e381620026b0565b82525050565b600060808201905062002700600083018762002358565b6200270f602083018662001a91565b6200271e6040830185620026d8565b6200272d60608301846200197d565b95945050505050565b60006080820190506200274d600083018762001a91565b6200275c60208301866200197d565b6200276b60408301856200197d565b6200277a606083018462001a91565b95945050505050565b6000819050919050565b6000620027ae620027a8620027a28462002783565b62002097565b62001b08565b9050919050565b620027c0816200278d565b82525050565b6000602082019050620027dd6000830184620027b5565b92915050565b6000620027f08262001833565b9150620027fd8362001833565b925082820190508082111562002818576200281762001f65565b5b92915050565b60006060820190506200283560008301866200197d565b6200284460208301856200197d565b62002853604083018462001a91565b949350505050565b620028668162001b08565b82525050565b600060e08201905062002883600083018a6200197d565b6200289260208301896200197d565b620028a160408301886200285b565b620028b0606083018762001a91565b620028bf608083018662001a91565b620028ce60a083018562001a91565b620028dd60c08301846200197d565b98975050505050505050565b7f496e697469616c697a61626c653a20636f6e747261637420697320616c72656160008201527f647920696e697469616c697a6564000000000000000000000000000000000000602082015250565b600062002947602e8362001a0e565b91506200295482620028e9565b604082019050919050565b600060208201905081810360008301526200297a8162002938565b9050919050565b6200298c81620018a0565b81146200299857600080fd5b50565b600081519050620029ac8162002981565b92915050565b600060208284031215620029cb57620029ca62001829565b5b6000620029db848285016200299b565b91505092915050565b7f5361666545524332303a204552433230206f7065726174696f6e20646964206e60008201527f6f74207375636365656400000000000000000000000000000000000000000000602082015250565b600062002a42602a8362001a0e565b915062002a4f82620029e4565b604082019050919050565b6000602082019050818103600083015262002a758162002a33565b9050919050565b7f416464726573733a20696e73756666696369656e742062616c616e636520666f60008201527f722063616c6c0000000000000000000000000000000000000000000000000000602082015250565b600062002ada60268362001a0e565b915062002ae78262002a7c565b604082019050919050565b6000602082019050818103600083015262002b0d8162002acb565b9050919050565b7f416464726573733a2063616c6c20746f206e6f6e2d636f6e7472616374000000600082015250565b600062002b4c601d8362001a0e565b915062002b598262002b14565b602082019050919050565b6000602082019050818103600083015262002b7f8162002b3d565b9050919050565b600081519050919050565b600081905092915050565b600062002ba98262002b86565b62002bb5818562002b91565b935062002bc781856020860162001c32565b80840191505092915050565b600062002be1828462002b9c565b915081905092915050565b600081519050919050565b600062002c048262002bec565b62002c10818562001a0e565b935062002c2281856020860162001c32565b62002c2d8162001b67565b840191505092915050565b6000602082019050818103600083015262002c54818462002bf7565b90509291505056fe608060405234801561001057600080fd5b5061002d61002261003260201b60201c565b61003a60201b60201c565b6100fe565b600033905090565b60008060009054906101000a900473ffffffffffffffffffffffffffffffffffffffff169050816000806101000a81548173ffffffffffffffffffffffffffffffffffffffff021916908373ffffffffffffffffffffffffffffffffffffffff1602179055508173ffffffffffffffffffffffffffffffffffffffff168173ffffffffffffffffffffffffffffffffffffffff167f8be0079c531659141344cd1fd0a4f28419497f9722a3daafe3b4186f6b6457e060405160405180910390a35050565b610e1c8061010d6000396000f3fe608060405234801561001057600080fd5b50600436106100575760003560e01c8063715018a61461005c5780638da5cb5b14610066578063f2fde38b14610084578063f6a0b70a146100a0578063f8b2cb4f146100bc575b600080fd5b6100646100ec565b005b61006e610174565b60405161007b91906106bc565b60405180910390f35b61009e60048036038101906100999190610717565b61019d565b005b6100ba60048036038101906100b591906109d4565b610294565b005b6100d660048036038101906100d19190610717565b61052c565b6040516100e39190610a6e565b60405180910390f35b6100f46105af565b73ffffffffffffffffffffffffffffffffffffffff16610112610174565b73ffffffffffffffffffffffffffffffffffffffff1614610168576040517f08c379a000000000000000000000000000000000000000000000000000000000815260040161015f90610ae6565b60405180910390fd5b61017260006105b7565b565b60008060009054906101000a900473ffffffffffffffffffffffffffffffffffffffff16905090565b6101a56105af565b73ffffffffffffffffffffffffffffffffffffffff166101c3610174565b73ffffffffffffffffffffffffffffffffffffffff1614610219576040517f08c379a000000000000000000000000000000000000000000000000000000000815260040161021090610ae6565b60405180910390fd5b600073ffffffffffffffffffffffffffffffffffffffff168173ffffffffffffffffffffffffffffffffffffffff1603610288576040517f08c379a000000000000000000000000000000000000000000000000000000000815260040161027f90610b78565b60405180910390fd5b610291816105b7565b50565b61029c6105af565b73ffffffffffffffffffffffffffffffffffffffff166102ba610174565b73ffffffffffffffffffffffffffffffffffffffff1614610310576040517f08c379a000000000000000000000000000000000000000000000000000000000815260040161030790610ae6565b60405180910390fd5b8051825114610354576040517f08c379a000000000000000000000000000000000000000000000000000000000815260040161034b90610be4565b60405180910390fd5b60005b825181101561051257600073ffffffffffffffffffffffffffffffffffffffff1683828151811061038b5761038a610c04565b5b602002602001015173ffffffffffffffffffffffffffffffffffffffff16146104ff578373ffffffffffffffffffffffffffffffffffffffff1663a9059cbb8483815181106103dd576103dc610c04565b5b60200260200101518673ffffffffffffffffffffffffffffffffffffffff166370a08231306040518263ffffffff1660e01b815260040161041e91906106bc565b602060405180830381865afa15801561043b573d6000803e3d6000fd5b505050506040513d601f19601f8201168201806040525081019061045f9190610c48565b6040518363ffffffff1660e01b815260040161047c929190610c75565b6020604051808303816000875af115801561049b573d6000803e3d6000fd5b505050506040513d601f19601f820116820180604052508101906104bf9190610cd6565b6104fe576040517f08c379a00000000000000000000000000000000000000000000000000000000081526004016104f590610d4f565b60405180910390fd5b5b808061050a90610d9e565b915050610357565b503373ffffffffffffffffffffffffffffffffffffffff16ff5b60008173ffffffffffffffffffffffffffffffffffffffff166370a08231306040518263ffffffff1660e01b815260040161056791906106bc565b602060405180830381865afa158015610584573d6000803e3d6000fd5b505050506040513d601f19601f820116820180604052508101906105a89190610c48565b9050919050565b600033905090565b60008060009054906101000a900473ffffffffffffffffffffffffffffffffffffffff169050816000806101000a81548173ffffffffffffffffffffffffffffffffffffffff021916908373ffffffffffffffffffffffffffffffffffffffff1602179055508173ffffffffffffffffffffffffffffffffffffffff168173ffffffffffffffffffffffffffffffffffffffff167f8be0079c531659141344cd1fd0a4f28419497f9722a3daafe3b4186f6b6457e060405160405180910390a35050565b600073ffffffffffffffffffffffffffffffffffffffff82169050919050565b60006106a68261067b565b9050919050565b6106b68161069b565b82525050565b60006020820190506106d160008301846106ad565b92915050565b6000604051905090565b600080fd5b600080fd5b6106f48161069b565b81146106ff57600080fd5b50565b600081359050610711816106eb565b92915050565b60006020828403121561072d5761072c6106e1565b5b600061073b84828501610702565b91505092915050565b600061074f8261069b565b9050919050565b61075f81610744565b811461076a57600080fd5b50565b60008135905061077c81610756565b92915050565b600080fd5b6000601f19601f8301169050919050565b7f4e487b7100000000000000000000000000000000000000000000000000000000600052604160045260246000fd5b6107d082610787565b810181811067ffffffffffffffff821117156107ef576107ee610798565b5b80604052505050565b60006108026106d7565b905061080e82826107c7565b919050565b600067ffffffffffffffff82111561082e5761082d610798565b5b602082029050602081019050919050565b600080fd5b600061085761085284610813565b6107f8565b9050808382526020820190506020840283018581111561087a5761087961083f565b5b835b818110156108a3578061088f8882610702565b84526020840193505060208101905061087c565b5050509392505050565b600082601f8301126108c2576108c1610782565b5b81356108d2848260208601610844565b91505092915050565b600067ffffffffffffffff8211156108f6576108f5610798565b5b602082029050602081019050919050565b6000819050919050565b61091a81610907565b811461092557600080fd5b50565b60008135905061093781610911565b92915050565b600061095061094b846108db565b6107f8565b905080838252602082019050602084028301858111156109735761097261083f565b5b835b8181101561099c57806109888882610928565b845260208401935050602081019050610975565b5050509392505050565b600082601f8301126109bb576109ba610782565b5b81356109cb84826020860161093d565b91505092915050565b6000806000606084860312156109ed576109ec6106e1565b5b60006109fb8682870161076d565b935050602084013567ffffffffffffffff811115610a1c57610a1b6106e6565b5b610a28868287016108ad565b925050604084013567ffffffffffffffff811115610a4957610a486106e6565b5b610a55868287016109a6565b9150509250925092565b610a6881610907565b82525050565b6000602082019050610a836000830184610a5f565b92915050565b600082825260208201905092915050565b7f4f776e61626c653a2063616c6c6572206973206e6f7420746865206f776e6572600082015250565b6000610ad0602083610a89565b9150610adb82610a9a565b602082019050919050565b60006020820190508181036000830152610aff81610ac3565b9050919050565b7f4f776e61626c653a206e6577206f776e657220697320746865207a65726f206160008201527f6464726573730000000000000000000000000000000000000000000000000000602082015250565b6000610b62602683610a89565b9150610b6d82610b06565b604082019050919050565b60006020820190508181036000830152610b9181610b55565b9050919050565b7f4d69736d6174636820696e20616c6c6f636174696f6e00000000000000000000600082015250565b6000610bce601683610a89565b9150610bd982610b98565b602082019050919050565b60006020820190508181036000830152610bfd81610bc1565b9050919050565b7f4e487b7100000000000000000000000000000000000000000000000000000000600052603260045260246000fd5b600081519050610c4281610911565b92915050565b600060208284031215610c5e57610c5d6106e1565b5b6000610c6c84828501610c33565b91505092915050565b6000604082019050610c8a60008301856106ad565b610c976020830184610a5f565b9392505050565b60008115159050919050565b610cb381610c9e565b8114610cbe57600080fd5b50565b600081519050610cd081610caa565b92915050565b600060208284031215610cec57610ceb6106e1565b5b6000610cfa84828501610cc1565b91505092915050565b7f5472616e73666572206661696c65640000000000000000000000000000000000600082015250565b6000610d39600f83610a89565b9150610d4482610d03565b602082019050919050565b60006020820190508181036000830152610d6881610d2c565b9050919050565b7f4e487b7100000000000000000000000000000000000000000000000000000000600052601160045260246000fd5b6000610da982610907565b91507fffffffffffffffffffffffffffffffffffffffffffffffffffffffffffffffff8203610ddb57610dda610d6f565b5b60018201905091905056fea264697066735822122047013ad641699e5276152da359f73af4daabb382ea28d139442699d70607ac0964736f6c63430008100033a264697066735822122010171da2448927f1cf6d6c4c193019d58483bba4efa6b6c94289ee009ddd70c964736f6c63430008100033",
  "linkReferences": {},
  "deployedLinkReferences": {}
}