{
  "_format": "hh-sol-artifact-1",
  "contractName": "ChymeVault",
  "sourceName": "contracts/ChymeVault.sol",
  "abi": [
    {
      "anonymous": false,
      "inputs": [
        {
          "indexed": true,
          "internalType": "address",
          "name": "previousOwner",
          "type": "address"
        },
        {
          "indexed": true,
          "internalType": "address",
          "name": "newOwner",
          "type": "address"
        }
      ],
      "name": "OwnershipTransferred",
      "type": "event"
    },
    {
      "inputs": [
        {
          "internalType": "address",
          "name": "token",
          "type": "address"
        }
      ],
      "name": "getBalance",
      "outputs": [
        {
          "internalType": "uint256",
          "name": "balance",
          "type": "uint256"
        }
      ],
      "stateMutability": "view",
      "type": "function"
    },
    {
      "inputs": [
        {
          "internalType": "contract IERC20",
          "name": "token",
          "type": "address"
        },
        {
          "internalType": "address[]",
          "name": "payTo",
          "type": "address[]"
        },
        {
          "internalType": "uint256[]",
          "name": "amounts",
          "type": "uint256[]"
        }
      ],
      "name": "mergeAndClose",
      "outputs": [],
      "stateMutability": "nonpayable",
      "type": "function"
    },
    {
      "inputs": [],
      "name": "owner",
      "outputs": [
        {
          "internalType": "address",
          "name": "",
          "type": "address"
        }
      ],
      "stateMutability": "view",
      "type": "function"
    },
    {
      "inputs": [],
      "name": "renounceOwnership",
      "outputs": [],
      "stateMutability": "nonpayable",
      "type": "function"
    },
    {
      "inputs": [
        {
          "internalType": "address",
          "name": "newOwner",
          "type": "address"
        }
      ],
      "name": "transferOwnership",
      "outputs": [],
      "stateMutability": "nonpayable",
      "type": "function"
    }
  ],
  "bytecode": "0x608060405234801561001057600080fd5b5061002d61002261003260201b60201c565b61003a60201b60201c565b6100fe565b600033905090565b60008060009054906101000a900473ffffffffffffffffffffffffffffffffffffffff169050816000806101000a81548173ffffffffffffffffffffffffffffffffffffffff021916908373ffffffffffffffffffffffffffffffffffffffff1602179055508173ffffffffffffffffffffffffffffffffffffffff168173ffffffffffffffffffffffffffffffffffffffff167f8be0079c531659141344cd1fd0a4f28419497f9722a3daafe3b4186f6b6457e060405160405180910390a35050565b610e1c8061010d6000396000f3fe608060405234801561001057600080fd5b50600436106100575760003560e01c8063715018a61461005c5780638da5cb5b14610066578063f2fde38b14610084578063f6a0b70a146100a0578063f8b2cb4f146100bc575b600080fd5b6100646100ec565b005b61006e610174565b60405161007b91906106bc565b60405180910390f35b61009e60048036038101906100999190610717565b61019d565b005b6100ba60048036038101906100b591906109d4565b610294565b005b6100d660048036038101906100d19190610717565b61052c565b6040516100e39190610a6e565b60405180910390f35b6100f46105af565b73ffffffffffffffffffffffffffffffffffffffff16610112610174565b73ffffffffffffffffffffffffffffffffffffffff1614610168576040517f08c379a000000000000000000000000000000000000000000000000000000000815260040161015f90610ae6565b60405180910390fd5b61017260006105b7565b565b60008060009054906101000a900473ffffffffffffffffffffffffffffffffffffffff16905090565b6101a56105af565b73ffffffffffffffffffffffffffffffffffffffff166101c3610174565b73ffffffffffffffffffffffffffffffffffffffff1614610219576040517f08c379a000000000000000000000000000000000000000000000000000000000815260040161021090610ae6565b60405180910390fd5b600073ffffffffffffffffffffffffffffffffffffffff168173ffffffffffffffffffffffffffffffffffffffff1603610288576040517f08c379a000000000000000000000000000000000000000000000000000000000815260040161027f90610b78565b60405180910390fd5b610291816105b7565b50565b61029c6105af565b73ffffffffffffffffffffffffffffffffffffffff166102ba610174565b73ffffffffffffffffffffffffffffffffffffffff1614610310576040517f08c379a000000000000000000000000000000000000000000000000000000000815260040161030790610ae6565b60405180910390fd5b8051825114610354576040517f08c379a000000000000000000000000000000000000000000000000000000000815260040161034b90610be4565b60405180910390fd5b60005b825181101561051257600073ffffffffffffffffffffffffffffffffffffffff1683828151811061038b5761038a610c04565b5b602002602001015173ffffffffffffffffffffffffffffffffffffffff16146104ff578373ffffffffffffffffffffffffffffffffffffffff1663a9059cbb8483815181106103dd576103dc610c04565b5b60200260200101518673ffffffffffffffffffffffffffffffffffffffff166370a08231306040518263ffffffff1660e01b815260040161041e91906106bc565b602060405180830381865afa15801561043b573d6000803e3d6000fd5b505050506040513d601f19601f8201168201806040525081019061045f9190610c48565b6040518363ffffffff1660e01b815260040161047c929190610c75565b6020604051808303816000875af115801561049b573d6000803e3d6000fd5b505050506040513d601f19601f820116820180604052508101906104bf9190610cd6565b6104fe576040517f08c379a00000000000000000000000000000000000000000000000000000000081526004016104f590610d4f565b60405180910390fd5b5b808061050a90610d9e565b915050610357565b503373ffffffffffffffffffffffffffffffffffffffff16ff5b60008173ffffffffffffffffffffffffffffffffffffffff166370a08231306040518263ffffffff1660e01b815260040161056791906106bc565b602060405180830381865afa158015610584573d6000803e3d6000fd5b505050506040513d601f19601f820116820180604052508101906105a89190610c48565b9050919050565b600033905090565b60008060009054906101000a900473ffffffffffffffffffffffffffffffffffffffff169050816000806101000a81548173ffffffffffffffffffffffffffffffffffffffff021916908373ffffffffffffffffffffffffffffffffffffffff1602179055508173ffffffffffffffffffffffffffffffffffffffff168173ffffffffffffffffffffffffffffffffffffffff167f8be0079c531659141344cd1fd0a4f28419497f9722a3daafe3b4186f6b6457e060405160405180910390a35050565b600073ffffffffffffffffffffffffffffffffffffffff82169050919050565b60006106a68261067b565b9050919050565b6106b68161069b565b82525050565b60006020820190506106d160008301846106ad565b92915050565b6000604051905090565b600080fd5b600080fd5b6106f48161069b565b81146106ff57600080fd5b50565b600081359050610711816106eb565b92915050565b60006020828403121561072d5761072c6106e1565b5b600061073b84828501610702565b91505092915050565b600061074f8261069b565b9050919050565b61075f81610744565b811461076a57600080fd5b50565b60008135905061077c81610756565b92915050565b600080fd5b6000601f19601f8301169050919050565b7f4e487b7100000000000000000000000000000000000000000000000000000000600052604160045260246000fd5b6107d082610787565b810181811067ffffffffffffffff821117156107ef576107ee610798565b5b80604052505050565b60006108026106d7565b905061080e82826107c7565b919050565b600067ffffffffffffffff82111561082e5761082d610798565b5b602082029050602081019050919050565b600080fd5b600061085761085284610813565b6107f8565b9050808382526020820190506020840283018581111561087a5761087961083f565b5b835b818110156108a3578061088f8882610702565b84526020840193505060208101905061087c565b5050509392505050565b600082601f8301126108c2576108c1610782565b5b81356108d2848260208601610844565b91505092915050565b600067ffffffffffffffff8211156108f6576108f5610798565b5b602082029050602081019050919050565b6000819050919050565b61091a81610907565b811461092557600080fd5b50565b60008135905061093781610911565b92915050565b600061095061094b846108db565b6107f8565b905080838252602082019050602084028301858111156109735761097261083f565b5b835b8181101561099c57806109888882610928565b845260208401935050602081019050610975565b5050509392505050565b600082601f8301126109bb576109ba610782565b5b81356109cb84826020860161093d565b91505092915050565b6000806000606084860312156109ed576109ec6106e1565b5b60006109fb8682870161076d565b935050602084013567ffffffffffffffff811115610a1c57610a1b6106e6565b5b610a28868287016108ad565b925050604084013567ffffffffffffffff811115610a4957610a486106e6565b5b610a55868287016109a6565b9150509250925092565b610a6881610907565b82525050565b6000602082019050610a836000830184610a5f565b92915050565b600082825260208201905092915050565b7f4f776e61626c653a2063616c6c6572206973206e6f7420746865206f776e6572600082015250565b6000610ad0602083610a89565b9150610adb82610a9a565b602082019050919050565b60006020820190508181036000830152610aff81610ac3565b9050919050565b7f4f776e61626c653a206e6577206f776e657220697320746865207a65726f206160008201527f6464726573730000000000000000000000000000000000000000000000000000602082015250565b6000610b62602683610a89565b9150610b6d82610b06565b604082019050919050565b60006020820190508181036000830152610b9181610b55565b9050919050565b7f4d69736d6174636820696e20616c6c6f636174696f6e00000000000000000000600082015250565b6000610bce601683610a89565b9150610bd982610b98565b602082019050919050565b60006020820190508181036000830152610bfd81610bc1565b9050919050565b7f4e487b7100000000000000000000000000000000000000000000000000000000600052603260045260246000fd5b600081519050610c4281610911565b92915050565b600060208284031215610c5e57610c5d6106e1565b5b6000610c6c84828501610c33565b91505092915050565b6000604082019050610c8a60008301856106ad565b610c976020830184610a5f565b9392505050565b60008115159050919050565b610cb381610c9e565b8114610cbe57600080fd5b50565b600081519050610cd081610caa565b92915050565b600060208284031215610cec57610ceb6106e1565b5b6000610cfa84828501610cc1565b91505092915050565b7f5472616e73666572206661696c65640000000000000000000000000000000000600082015250565b6000610d39600f83610a89565b9150610d4482610d03565b602082019050919050565b60006020820190508181036000830152610d6881610d2c565b9050919050565b7f4e487b7100000000000000000000000000000000000000000000000000000000600052601160045260246000fd5b6000610da982610907565b91507fffffffffffffffffffffffffffffffffffffffffffffffffffffffffffffffff8203610ddb57610dda610d6f565b5b60018201905091905056fea264697066735822122046d28262566141b815cb24ab67a12208f8fa196779b014079166999e635f240c64736f6c634300080d0033",
  "linkReferences": {},
  "deployedLinkReferences": {}
}